{"abi":[{"inputs":[{"internalType":"uint256","name":"betsize","type":"uint256"}],"name":"createCoinflipDuel","outputs":[],"stateMutability":"nonpayable","type":"function"},{"inputs":[{"internalType":"uint256","name":"","type":"uint256"}],"name":"deployedCoinflipDuels","outputs":[{"internalType":"address","name":"","type":"address"}],"stateMutability":"view","type":"function"},{"inputs":[],"name":"getDeployedCoinflipDuels","outputs":[{"internalType":"address[]","name":"","type":"address[]"}],"stateMutability":"view","type":"function"}],"devdoc":{"kind":"dev","methods":{},"version":1},"evm":{"assembly":"    /* \"CoinflipDuel.sol\":74:473  contract CoinflipDuelFactory {... */\n  mstore(0x40, 0x80)\n  callvalue\n  dup1\n  iszero\n  tag_1\n  jumpi\n  0x00\n  dup1\n  revert\ntag_1:\n  pop\n  dataSize(sub_0)\n  dup1\n  dataOffset(sub_0)\n  0x00\n  codecopy\n  0x00\n  return\nstop\n\nsub_0: assembly {\n        /* \"CoinflipDuel.sol\":74:473  contract CoinflipDuelFactory {... */\n      mstore(0x40, 0x80)\n      callvalue\n      dup1\n      iszero\n      tag_1\n      jumpi\n      0x00\n      dup1\n      revert\n    tag_1:\n      pop\n      jumpi(tag_2, lt(calldatasize, 0x04))\n      shr(0xe0, calldataload(0x00))\n      dup1\n      0x47b27d13\n      eq\n      tag_3\n      jumpi\n      dup1\n      0x50a4cef1\n      eq\n      tag_4\n      jumpi\n      dup1\n      0xde0b8a52\n      eq\n      tag_5\n      jumpi\n    tag_2:\n      0x00\n      dup1\n      revert\n        /* \"CoinflipDuel.sol\":110:148  address[] public deployedCoinflipDuels */\n    tag_3:\n      tag_6\n      0x04\n      dup1\n      calldatasize\n      sub\n      dup2\n      add\n      swap1\n      tag_7\n      swap2\n      swap1\n      tag_8\n      jump\t// in\n    tag_7:\n      tag_9\n      jump\t// in\n    tag_6:\n      mload(0x40)\n      tag_10\n      swap2\n      swap1\n      tag_11\n      jump\t// in\n    tag_10:\n      mload(0x40)\n      dup1\n      swap2\n      sub\n      swap1\n      return\n        /* \"CoinflipDuel.sol\":157:339  function createCoinflipDuel(uint betsize) public {... */\n    tag_4:\n      tag_12\n      0x04\n      dup1\n      calldatasize\n      sub\n      dup2\n      add\n      swap1\n      tag_13\n      swap2\n      swap1\n      tag_8\n      jump\t// in\n    tag_13:\n      tag_14\n      jump\t// in\n    tag_12:\n      stop\n        /* \"CoinflipDuel.sol\":347:468  function getDeployedCoinflipDuels() public view returns(address[] memory) {... */\n    tag_5:\n      tag_15\n      tag_16\n      jump\t// in\n    tag_15:\n      mload(0x40)\n      tag_17\n      swap2\n      swap1\n      tag_18\n      jump\t// in\n    tag_17:\n      mload(0x40)\n      dup1\n      swap2\n      sub\n      swap1\n      return\n        /* \"CoinflipDuel.sol\":110:148  address[] public deployedCoinflipDuels */\n    tag_9:\n      0x00\n      dup2\n      dup2\n      sload\n      dup2\n      lt\n      tag_19\n      jumpi\n      0x00\n      dup1\n      revert\n    tag_19:\n      swap1\n      0x00\n      mstore\n      keccak256(0x00, 0x20)\n      add\n      0x00\n      swap2\n      pop\n      sload\n      swap1\n      0x0100\n      exp\n      swap1\n      div\n      0xffffffffffffffffffffffffffffffffffffffff\n      and\n      dup2\n      jump\t// out\n        /* \"CoinflipDuel.sol\":157:339  function createCoinflipDuel(uint betsize) public {... */\n    tag_14:\n        /* \"CoinflipDuel.sol\":217:240  address newCoinflipDuel */\n      0x00\n        /* \"CoinflipDuel.sol\":268:275  betsize */\n      dup2\n        /* \"CoinflipDuel.sol\":251:276  new CoinflipDuel(betsize) */\n      mload(0x40)\n      tag_22\n      swap1\n      tag_23\n      jump\t// in\n    tag_22:\n      tag_24\n      swap2\n      swap1\n      tag_25\n      jump\t// in\n    tag_24:\n      mload(0x40)\n      dup1\n      swap2\n      sub\n      swap1\n      0x00\n      create\n      dup1\n      iszero\n      dup1\n      iszero\n      tag_26\n      jumpi\n      returndatasize\n      0x00\n      dup1\n      returndatacopy\n      revert(0x00, returndatasize)\n    tag_26:\n      pop\n        /* \"CoinflipDuel.sol\":217:277  address newCoinflipDuel = address(new CoinflipDuel(betsize)) */\n      swap1\n      pop\n        /* \"CoinflipDuel.sol\":288:309  deployedCoinflipDuels */\n      0x00\n        /* \"CoinflipDuel.sol\":315:330  newCoinflipDuel */\n      dup2\n        /* \"CoinflipDuel.sol\":288:331  deployedCoinflipDuels.push(newCoinflipDuel) */\n      swap1\n      dup1\n      0x01\n      dup2\n      sload\n      add\n      dup1\n      dup3\n      sstore\n      dup1\n      swap2\n      pop\n      pop\n      0x01\n      swap1\n      sub\n      swap1\n      0x00\n      mstore\n      keccak256(0x00, 0x20)\n      add\n      0x00\n      swap1\n      swap2\n      swap1\n      swap2\n      swap1\n      swap2\n      0x0100\n      exp\n      dup2\n      sload\n      dup2\n      0xffffffffffffffffffffffffffffffffffffffff\n      mul\n      not\n      and\n      swap1\n      dup4\n      0xffffffffffffffffffffffffffffffffffffffff\n      and\n      mul\n      or\n      swap1\n      sstore\n      pop\n        /* \"CoinflipDuel.sol\":206:339  {... */\n      pop\n        /* \"CoinflipDuel.sol\":157:339  function createCoinflipDuel(uint betsize) public {... */\n      pop\n      jump\t// out\n        /* \"CoinflipDuel.sol\":347:468  function getDeployedCoinflipDuels() public view returns(address[] memory) {... */\n    tag_16:\n        /* \"CoinflipDuel.sol\":403:419  address[] memory */\n      0x60\n        /* \"CoinflipDuel.sol\":439:460  deployedCoinflipDuels */\n      0x00\n        /* \"CoinflipDuel.sol\":432:460  return deployedCoinflipDuels */\n      dup1\n      sload\n      dup1\n      0x20\n      mul\n      0x20\n      add\n      mload(0x40)\n      swap1\n      dup2\n      add\n      0x40\n      mstore\n      dup1\n      swap3\n      swap2\n      swap1\n      dup2\n      dup2\n      mstore\n      0x20\n      add\n      dup3\n      dup1\n      sload\n      dup1\n      iszero\n      tag_29\n      jumpi\n      0x20\n      mul\n      dup3\n      add\n      swap2\n      swap1\n      0x00\n      mstore\n      keccak256(0x00, 0x20)\n      swap1\n    tag_30:\n      dup2\n      0x00\n      swap1\n      sload\n      swap1\n      0x0100\n      exp\n      swap1\n      div\n      0xffffffffffffffffffffffffffffffffffffffff\n      and\n      0xffffffffffffffffffffffffffffffffffffffff\n      and\n      dup2\n      mstore\n      0x20\n      add\n      swap1\n      0x01\n      add\n      swap1\n      dup1\n      dup4\n      gt\n      tag_30\n      jumpi\n    tag_29:\n      pop\n      pop\n      pop\n      pop\n      pop\n      swap1\n      pop\n        /* \"CoinflipDuel.sol\":347:468  function getDeployedCoinflipDuels() public view returns(address[] memory) {... */\n      swap1\n      jump\t// out\n    tag_23:\n      dataSize(sub_0)\n      dup1\n      dataOffset(sub_0)\n      dup4\n      codecopy\n      add\n      swap1\n      jump\t// out\n        /* \"#utility.yul\":88:205   */\n    tag_32:\n        /* \"#utility.yul\":197:198   */\n      0x00\n        /* \"#utility.yul\":194:195   */\n      dup1\n        /* \"#utility.yul\":187:199   */\n      revert\n        /* \"#utility.yul\":334:411   */\n    tag_34:\n        /* \"#utility.yul\":371:378   */\n      0x00\n        /* \"#utility.yul\":400:405   */\n      dup2\n        /* \"#utility.yul\":389:405   */\n      swap1\n      pop\n        /* \"#utility.yul\":334:411   */\n      swap2\n      swap1\n      pop\n      jump\t// out\n        /* \"#utility.yul\":417:539   */\n    tag_35:\n        /* \"#utility.yul\":490:514   */\n      tag_54\n        /* \"#utility.yul\":508:513   */\n      dup2\n        /* \"#utility.yul\":490:514   */\n      tag_34\n      jump\t// in\n    tag_54:\n        /* \"#utility.yul\":483:488   */\n      dup2\n        /* \"#utility.yul\":480:515   */\n      eq\n        /* \"#utility.yul\":470:533   */\n      tag_55\n      jumpi\n        /* \"#utility.yul\":529:530   */\n      0x00\n        /* \"#utility.yul\":526:527   */\n      dup1\n        /* \"#utility.yul\":519:531   */\n      revert\n        /* \"#utility.yul\":470:533   */\n    tag_55:\n        /* \"#utility.yul\":417:539   */\n      pop\n      jump\t// out\n        /* \"#utility.yul\":545:684   */\n    tag_36:\n        /* \"#utility.yul\":591:596   */\n      0x00\n        /* \"#utility.yul\":629:635   */\n      dup2\n        /* \"#utility.yul\":616:636   */\n      calldataload\n        /* \"#utility.yul\":607:636   */\n      swap1\n      pop\n        /* \"#utility.yul\":645:678   */\n      tag_57\n        /* \"#utility.yul\":672:677   */\n      dup2\n        /* \"#utility.yul\":645:678   */\n      tag_35\n      jump\t// in\n    tag_57:\n        /* \"#utility.yul\":545:684   */\n      swap3\n      swap2\n      pop\n      pop\n      jump\t// out\n        /* \"#utility.yul\":690:1019   */\n    tag_8:\n        /* \"#utility.yul\":749:755   */\n      0x00\n        /* \"#utility.yul\":798:800   */\n      0x20\n        /* \"#utility.yul\":786:795   */\n      dup3\n        /* \"#utility.yul\":777:784   */\n      dup5\n        /* \"#utility.yul\":773:796   */\n      sub\n        /* \"#utility.yul\":769:801   */\n      slt\n        /* \"#utility.yul\":766:885   */\n      iszero\n      tag_59\n      jumpi\n        /* \"#utility.yul\":804:883   */\n      tag_60\n      tag_32\n      jump\t// in\n    tag_60:\n        /* \"#utility.yul\":766:885   */\n    tag_59:\n        /* \"#utility.yul\":924:925   */\n      0x00\n        /* \"#utility.yul\":949:1002   */\n      tag_61\n        /* \"#utility.yul\":994:1001   */\n      dup5\n        /* \"#utility.yul\":985:991   */\n      dup3\n        /* \"#utility.yul\":974:983   */\n      dup6\n        /* \"#utility.yul\":970:992   */\n      add\n        /* \"#utility.yul\":949:1002   */\n      tag_36\n      jump\t// in\n    tag_61:\n        /* \"#utility.yul\":939:1002   */\n      swap2\n      pop\n        /* \"#utility.yul\":895:1012   */\n      pop\n        /* \"#utility.yul\":690:1019   */\n      swap3\n      swap2\n      pop\n      pop\n      jump\t// out\n        /* \"#utility.yul\":1025:1151   */\n    tag_37:\n        /* \"#utility.yul\":1062:1069   */\n      0x00\n        /* \"#utility.yul\":1102:1144   */\n      0xffffffffffffffffffffffffffffffffffffffff\n        /* \"#utility.yul\":1095:1100   */\n      dup3\n        /* \"#utility.yul\":1091:1145   */\n      and\n        /* \"#utility.yul\":1080:1145   */\n      swap1\n      pop\n        /* \"#utility.yul\":1025:1151   */\n      swap2\n      swap1\n      pop\n      jump\t// out\n        /* \"#utility.yul\":1157:1253   */\n    tag_38:\n        /* \"#utility.yul\":1194:1201   */\n      0x00\n        /* \"#utility.yul\":1223:1247   */\n      tag_64\n        /* \"#utility.yul\":1241:1246   */\n      dup3\n        /* \"#utility.yul\":1223:1247   */\n      tag_37\n      jump\t// in\n    tag_64:\n        /* \"#utility.yul\":1212:1247   */\n      swap1\n      pop\n        /* \"#utility.yul\":1157:1253   */\n      swap2\n      swap1\n      pop\n      jump\t// out\n        /* \"#utility.yul\":1259:1377   */\n    tag_39:\n        /* \"#utility.yul\":1346:1370   */\n      tag_66\n        /* \"#utility.yul\":1364:1369   */\n      dup2\n        /* \"#utility.yul\":1346:1370   */\n      tag_38\n      jump\t// in\n    tag_66:\n        /* \"#utility.yul\":1341:1344   */\n      dup3\n        /* \"#utility.yul\":1334:1371   */\n      mstore\n        /* \"#utility.yul\":1259:1377   */\n      pop\n      pop\n      jump\t// out\n        /* \"#utility.yul\":1383:1605   */\n    tag_11:\n        /* \"#utility.yul\":1476:1480   */\n      0x00\n        /* \"#utility.yul\":1514:1516   */\n      0x20\n        /* \"#utility.yul\":1503:1512   */\n      dup3\n        /* \"#utility.yul\":1499:1517   */\n      add\n        /* \"#utility.yul\":1491:1517   */\n      swap1\n      pop\n        /* \"#utility.yul\":1527:1598   */\n      tag_68\n        /* \"#utility.yul\":1595:1596   */\n      0x00\n        /* \"#utility.yul\":1584:1593   */\n      dup4\n        /* \"#utility.yul\":1580:1597   */\n      add\n        /* \"#utility.yul\":1571:1577   */\n      dup5\n        /* \"#utility.yul\":1527:1598   */\n      tag_39\n      jump\t// in\n    tag_68:\n        /* \"#utility.yul\":1383:1605   */\n      swap3\n      swap2\n      pop\n      pop\n      jump\t// out\n        /* \"#utility.yul\":1611:1725   */\n    tag_40:\n        /* \"#utility.yul\":1678:1684   */\n      0x00\n        /* \"#utility.yul\":1712:1717   */\n      dup2\n        /* \"#utility.yul\":1706:1718   */\n      mload\n        /* \"#utility.yul\":1696:1718   */\n      swap1\n      pop\n        /* \"#utility.yul\":1611:1725   */\n      swap2\n      swap1\n      pop\n      jump\t// out\n        /* \"#utility.yul\":1731:1915   */\n    tag_41:\n        /* \"#utility.yul\":1830:1841   */\n      0x00\n        /* \"#utility.yul\":1864:1870   */\n      dup3\n        /* \"#utility.yul\":1859:1862   */\n      dup3\n        /* \"#utility.yul\":1852:1871   */\n      mstore\n        /* \"#utility.yul\":1904:1908   */\n      0x20\n        /* \"#utility.yul\":1899:1902   */\n      dup3\n        /* \"#utility.yul\":1895:1909   */\n      add\n        /* \"#utility.yul\":1880:1909   */\n      swap1\n      pop\n        /* \"#utility.yul\":1731:1915   */\n      swap3\n      swap2\n      pop\n      pop\n      jump\t// out\n        /* \"#utility.yul\":1921:2053   */\n    tag_42:\n        /* \"#utility.yul\":1988:1992   */\n      0x00\n        /* \"#utility.yul\":2011:2014   */\n      dup2\n        /* \"#utility.yul\":2003:2014   */\n      swap1\n      pop\n        /* \"#utility.yul\":2041:2045   */\n      0x20\n        /* \"#utility.yul\":2036:2039   */\n      dup3\n        /* \"#utility.yul\":2032:2046   */\n      add\n        /* \"#utility.yul\":2024:2046   */\n      swap1\n      pop\n        /* \"#utility.yul\":1921:2053   */\n      swap2\n      swap1\n      pop\n      jump\t// out\n        /* \"#utility.yul\":2059:2167   */\n    tag_43:\n        /* \"#utility.yul\":2136:2160   */\n      tag_73\n        /* \"#utility.yul\":2154:2159   */\n      dup2\n        /* \"#utility.yul\":2136:2160   */\n      tag_38\n      jump\t// in\n    tag_73:\n        /* \"#utility.yul\":2131:2134   */\n      dup3\n        /* \"#utility.yul\":2124:2161   */\n      mstore\n        /* \"#utility.yul\":2059:2167   */\n      pop\n      pop\n      jump\t// out\n        /* \"#utility.yul\":2173:2352   */\n    tag_44:\n        /* \"#utility.yul\":2242:2252   */\n      0x00\n        /* \"#utility.yul\":2263:2309   */\n      tag_75\n        /* \"#utility.yul\":2305:2308   */\n      dup4\n        /* \"#utility.yul\":2297:2303   */\n      dup4\n        /* \"#utility.yul\":2263:2309   */\n      tag_43\n      jump\t// in\n    tag_75:\n        /* \"#utility.yul\":2341:2345   */\n      0x20\n        /* \"#utility.yul\":2336:2339   */\n      dup4\n        /* \"#utility.yul\":2332:2346   */\n      add\n        /* \"#utility.yul\":2318:2346   */\n      swap1\n      pop\n        /* \"#utility.yul\":2173:2352   */\n      swap3\n      swap2\n      pop\n      pop\n      jump\t// out\n        /* \"#utility.yul\":2358:2471   */\n    tag_45:\n        /* \"#utility.yul\":2428:2432   */\n      0x00\n        /* \"#utility.yul\":2460:2464   */\n      0x20\n        /* \"#utility.yul\":2455:2458   */\n      dup3\n        /* \"#utility.yul\":2451:2465   */\n      add\n        /* \"#utility.yul\":2443:2465   */\n      swap1\n      pop\n        /* \"#utility.yul\":2358:2471   */\n      swap2\n      swap1\n      pop\n      jump\t// out\n        /* \"#utility.yul\":2507:3239   */\n    tag_46:\n        /* \"#utility.yul\":2626:2629   */\n      0x00\n        /* \"#utility.yul\":2655:2709   */\n      tag_78\n        /* \"#utility.yul\":2703:2708   */\n      dup3\n        /* \"#utility.yul\":2655:2709   */\n      tag_40\n      jump\t// in\n    tag_78:\n        /* \"#utility.yul\":2725:2811   */\n      tag_79\n        /* \"#utility.yul\":2804:2810   */\n      dup2\n        /* \"#utility.yul\":2799:2802   */\n      dup6\n        /* \"#utility.yul\":2725:2811   */\n      tag_41\n      jump\t// in\n    tag_79:\n        /* \"#utility.yul\":2718:2811   */\n      swap4\n      pop\n        /* \"#utility.yul\":2835:2891   */\n      tag_80\n        /* \"#utility.yul\":2885:2890   */\n      dup4\n        /* \"#utility.yul\":2835:2891   */\n      tag_42\n      jump\t// in\n    tag_80:\n        /* \"#utility.yul\":2914:2921   */\n      dup1\n        /* \"#utility.yul\":2945:2946   */\n      0x00\n        /* \"#utility.yul\":2930:3214   */\n    tag_81:\n        /* \"#utility.yul\":2955:2961   */\n      dup4\n        /* \"#utility.yul\":2952:2953   */\n      dup2\n        /* \"#utility.yul\":2949:2962   */\n      lt\n        /* \"#utility.yul\":2930:3214   */\n      iszero\n      tag_83\n      jumpi\n        /* \"#utility.yul\":3031:3037   */\n      dup2\n        /* \"#utility.yul\":3025:3038   */\n      mload\n        /* \"#utility.yul\":3058:3121   */\n      tag_84\n        /* \"#utility.yul\":3117:3120   */\n      dup9\n        /* \"#utility.yul\":3102:3115   */\n      dup3\n        /* \"#utility.yul\":3058:3121   */\n      tag_44\n      jump\t// in\n    tag_84:\n        /* \"#utility.yul\":3051:3121   */\n      swap8\n      pop\n        /* \"#utility.yul\":3144:3204   */\n      tag_85\n        /* \"#utility.yul\":3197:3203   */\n      dup4\n        /* \"#utility.yul\":3144:3204   */\n      tag_45\n      jump\t// in\n    tag_85:\n        /* \"#utility.yul\":3134:3204   */\n      swap3\n      pop\n        /* \"#utility.yul\":2990:3214   */\n      pop\n        /* \"#utility.yul\":2977:2978   */\n      0x01\n        /* \"#utility.yul\":2974:2975   */\n      dup2\n        /* \"#utility.yul\":2970:2979   */\n      add\n        /* \"#utility.yul\":2965:2979   */\n      swap1\n      pop\n        /* \"#utility.yul\":2930:3214   */\n      jump(tag_81)\n    tag_83:\n        /* \"#utility.yul\":2934:2948   */\n      pop\n        /* \"#utility.yul\":3230:3233   */\n      dup6\n        /* \"#utility.yul\":3223:3233   */\n      swap4\n      pop\n        /* \"#utility.yul\":2631:3239   */\n      pop\n      pop\n      pop\n        /* \"#utility.yul\":2507:3239   */\n      swap3\n      swap2\n      pop\n      pop\n      jump\t// out\n        /* \"#utility.yul\":3245:3618   */\n    tag_18:\n        /* \"#utility.yul\":3388:3392   */\n      0x00\n        /* \"#utility.yul\":3426:3428   */\n      0x20\n        /* \"#utility.yul\":3415:3424   */\n      dup3\n        /* \"#utility.yul\":3411:3429   */\n      add\n        /* \"#utility.yul\":3403:3429   */\n      swap1\n      pop\n        /* \"#utility.yul\":3475:3484   */\n      dup2\n        /* \"#utility.yul\":3469:3473   */\n      dup2\n        /* \"#utility.yul\":3465:3485   */\n      sub\n        /* \"#utility.yul\":3461:3462   */\n      0x00\n        /* \"#utility.yul\":3450:3459   */\n      dup4\n        /* \"#utility.yul\":3446:3463   */\n      add\n        /* \"#utility.yul\":3439:3486   */\n      mstore\n        /* \"#utility.yul\":3503:3611   */\n      tag_87\n        /* \"#utility.yul\":3606:3610   */\n      dup2\n        /* \"#utility.yul\":3597:3603   */\n      dup5\n        /* \"#utility.yul\":3503:3611   */\n      tag_46\n      jump\t// in\n    tag_87:\n        /* \"#utility.yul\":3495:3611   */\n      swap1\n      pop\n        /* \"#utility.yul\":3245:3618   */\n      swap3\n      swap2\n      pop\n      pop\n      jump\t// out\n        /* \"#utility.yul\":3624:3742   */\n    tag_47:\n        /* \"#utility.yul\":3711:3735   */\n      tag_89\n        /* \"#utility.yul\":3729:3734   */\n      dup2\n        /* \"#utility.yul\":3711:3735   */\n      tag_34\n      jump\t// in\n    tag_89:\n        /* \"#utility.yul\":3706:3709   */\n      dup3\n        /* \"#utility.yul\":3699:3736   */\n      mstore\n        /* \"#utility.yul\":3624:3742   */\n      pop\n      pop\n      jump\t// out\n        /* \"#utility.yul\":3748:3970   */\n    tag_25:\n        /* \"#utility.yul\":3841:3845   */\n      0x00\n        /* \"#utility.yul\":3879:3881   */\n      0x20\n        /* \"#utility.yul\":3868:3877   */\n      dup3\n        /* \"#utility.yul\":3864:3882   */\n      add\n        /* \"#utility.yul\":3856:3882   */\n      swap1\n      pop\n        /* \"#utility.yul\":3892:3963   */\n      tag_91\n        /* \"#utility.yul\":3960:3961   */\n      0x00\n        /* \"#utility.yul\":3949:3958   */\n      dup4\n        /* \"#utility.yul\":3945:3962   */\n      add\n        /* \"#utility.yul\":3936:3942   */\n      dup5\n        /* \"#utility.yul\":3892:3963   */\n      tag_47\n      jump\t// in\n    tag_91:\n        /* \"#utility.yul\":3748:3970   */\n      swap3\n      swap2\n      pop\n      pop\n      jump\t// out\n    stop\n\n    sub_0: assembly {\n            /* \"CoinflipDuel.sol\":477:2394  contract CoinflipDuel {... */\n          mstore(0x40, 0x80)\n            /* \"CoinflipDuel.sol\":565:566  0 */\n          0x00\n            /* \"CoinflipDuel.sol\":532:567  address public player1 = address(0) */\n          0x01\n          exp(0x0100, 0x00)\n          dup2\n          sload\n          dup2\n          0xffffffffffffffffffffffffffffffffffffffff\n          mul\n          not\n          and\n          swap1\n          dup4\n          0xffffffffffffffffffffffffffffffffffffffff\n          and\n          mul\n          or\n          swap1\n          sstore\n          pop\n            /* \"CoinflipDuel.sol\":607:608  0 */\n          0x00\n            /* \"CoinflipDuel.sol\":574:609  address public player2 = address(0) */\n          0x02\n          exp(0x0100, 0x00)\n          dup2\n          sload\n          dup2\n          0xffffffffffffffffffffffffffffffffffffffff\n          mul\n          not\n          and\n          swap1\n          dup4\n          0xffffffffffffffffffffffffffffffffffffffff\n          and\n          mul\n          or\n          swap1\n          sstore\n          pop\n            /* \"CoinflipDuel.sol\":641:642  0 */\n          0x00\n            /* \"CoinflipDuel.sol\":616:642  uint public player1Bet = 0 */\n          0x03\n          sstore\n            /* \"CoinflipDuel.sol\":674:675  0 */\n          0x00\n            /* \"CoinflipDuel.sol\":649:675  uint public player2Bet = 0 */\n          0x04\n          sstore\n            /* \"CoinflipDuel.sol\":686:763  constructor (uint enteredBetsize) {... */\n          callvalue\n          dup1\n          iszero\n          tag_1\n          jumpi\n          0x00\n          dup1\n          revert\n        tag_1:\n          pop\n          mload(0x40)\n          sub(codesize, bytecodeSize)\n          dup1\n          bytecodeSize\n          dup4\n          codecopy\n          dup2\n          dup2\n          add\n          0x40\n          mstore\n          dup2\n          add\n          swap1\n          tag_2\n          swap2\n          swap1\n          tag_3\n          jump\t// in\n        tag_2:\n            /* \"CoinflipDuel.sol\":741:755  enteredBetsize */\n          dup1\n            /* \"CoinflipDuel.sol\":731:738  betsize */\n          0x00\n            /* \"CoinflipDuel.sol\":731:755  betsize = enteredBetsize */\n          dup2\n          swap1\n          sstore\n          pop\n            /* \"CoinflipDuel.sol\":686:763  constructor (uint enteredBetsize) {... */\n          pop\n            /* \"CoinflipDuel.sol\":477:2394  contract CoinflipDuel {... */\n          jump(tag_6)\n            /* \"#utility.yul\":88:205   */\n        tag_8:\n            /* \"#utility.yul\":197:198   */\n          0x00\n            /* \"#utility.yul\":194:195   */\n          dup1\n            /* \"#utility.yul\":187:199   */\n          revert\n            /* \"#utility.yul\":334:411   */\n        tag_10:\n            /* \"#utility.yul\":371:378   */\n          0x00\n            /* \"#utility.yul\":400:405   */\n          dup2\n            /* \"#utility.yul\":389:405   */\n          swap1\n          pop\n            /* \"#utility.yul\":334:411   */\n          swap2\n          swap1\n          pop\n          jump\t// out\n            /* \"#utility.yul\":417:539   */\n        tag_11:\n            /* \"#utility.yul\":490:514   */\n          tag_19\n            /* \"#utility.yul\":508:513   */\n          dup2\n            /* \"#utility.yul\":490:514   */\n          tag_10\n          jump\t// in\n        tag_19:\n            /* \"#utility.yul\":483:488   */\n          dup2\n            /* \"#utility.yul\":480:515   */\n          eq\n            /* \"#utility.yul\":470:533   */\n          tag_20\n          jumpi\n            /* \"#utility.yul\":529:530   */\n          0x00\n            /* \"#utility.yul\":526:527   */\n          dup1\n            /* \"#utility.yul\":519:531   */\n          revert\n            /* \"#utility.yul\":470:533   */\n        tag_20:\n            /* \"#utility.yul\":417:539   */\n          pop\n          jump\t// out\n            /* \"#utility.yul\":545:688   */\n        tag_12:\n            /* \"#utility.yul\":602:607   */\n          0x00\n            /* \"#utility.yul\":633:639   */\n          dup2\n            /* \"#utility.yul\":627:640   */\n          mload\n            /* \"#utility.yul\":618:640   */\n          swap1\n          pop\n            /* \"#utility.yul\":649:682   */\n          tag_22\n            /* \"#utility.yul\":676:681   */\n          dup2\n            /* \"#utility.yul\":649:682   */\n          tag_11\n          jump\t// in\n        tag_22:\n            /* \"#utility.yul\":545:688   */\n          swap3\n          swap2\n          pop\n          pop\n          jump\t// out\n            /* \"#utility.yul\":694:1045   */\n        tag_3:\n            /* \"#utility.yul\":764:770   */\n          0x00\n            /* \"#utility.yul\":813:815   */\n          0x20\n            /* \"#utility.yul\":801:810   */\n          dup3\n            /* \"#utility.yul\":792:799   */\n          dup5\n            /* \"#utility.yul\":788:811   */\n          sub\n            /* \"#utility.yul\":784:816   */\n          slt\n            /* \"#utility.yul\":781:900   */\n          iszero\n          tag_24\n          jumpi\n            /* \"#utility.yul\":819:898   */\n          tag_25\n          tag_8\n          jump\t// in\n        tag_25:\n            /* \"#utility.yul\":781:900   */\n        tag_24:\n            /* \"#utility.yul\":939:940   */\n          0x00\n            /* \"#utility.yul\":964:1028   */\n          tag_26\n            /* \"#utility.yul\":1020:1027   */\n          dup5\n            /* \"#utility.yul\":1011:1017   */\n          dup3\n            /* \"#utility.yul\":1000:1009   */\n          dup6\n            /* \"#utility.yul\":996:1018   */\n          add\n            /* \"#utility.yul\":964:1028   */\n          tag_12\n          jump\t// in\n        tag_26:\n            /* \"#utility.yul\":954:1028   */\n          swap2\n          pop\n            /* \"#utility.yul\":910:1038   */\n          pop\n            /* \"#utility.yul\":694:1045   */\n          swap3\n          swap2\n          pop\n          pop\n          jump\t// out\n            /* \"CoinflipDuel.sol\":477:2394  contract CoinflipDuel {... */\n        tag_6:\n          dataSize(sub_0)\n          dup1\n          dataOffset(sub_0)\n          0x00\n          codecopy\n          0x00\n          return\n        stop\n\n        sub_0: assembly {\n                /* \"CoinflipDuel.sol\":477:2394  contract CoinflipDuel {... */\n              mstore(0x40, 0x80)\n              jumpi(tag_1, lt(calldatasize, 0x04))\n              shr(0xe0, calldataload(0x00))\n              dup1\n              0x61740acd\n              gt\n              tag_10\n              jumpi\n              dup1\n              0x61740acd\n              eq\n              tag_6\n              jumpi\n              dup1\n              0xd30895e4\n              eq\n              tag_7\n              jumpi\n              dup1\n              0xd9f8fd12\n              eq\n              tag_8\n              jumpi\n              dup1\n              0xfdc03ca2\n              eq\n              tag_9\n              jumpi\n              jump(tag_1)\n            tag_10:\n              dup1\n              0x11289fba\n              eq\n              tag_2\n              jumpi\n              dup1\n              0x12065fe0\n              eq\n              tag_3\n              jumpi\n              dup1\n              0x3ccfd60b\n              eq\n              tag_4\n              jumpi\n              dup1\n              0x59a5f12d\n              eq\n              tag_5\n              jumpi\n            tag_1:\n              0x00\n              dup1\n              revert\n                /* \"CoinflipDuel.sol\":616:642  uint public player1Bet = 0 */\n            tag_2:\n              callvalue\n              dup1\n              iszero\n              tag_11\n              jumpi\n              0x00\n              dup1\n              revert\n            tag_11:\n              pop\n              tag_12\n              tag_13\n              jump\t// in\n            tag_12:\n              mload(0x40)\n              tag_14\n              swap2\n              swap1\n              tag_15\n              jump\t// in\n            tag_14:\n              mload(0x40)\n              dup1\n              swap2\n              sub\n              swap1\n              return\n                /* \"CoinflipDuel.sol\":2295:2391  function getBalance() public view returns(uint)  {... */\n            tag_3:\n              callvalue\n              dup1\n              iszero\n              tag_16\n              jumpi\n              0x00\n              dup1\n              revert\n            tag_16:\n              pop\n              tag_17\n              tag_18\n              jump\t// in\n            tag_17:\n              mload(0x40)\n              tag_19\n              swap2\n              swap1\n              tag_15\n              jump\t// in\n            tag_19:\n              mload(0x40)\n              dup1\n              swap2\n              sub\n              swap1\n              return\n                /* \"CoinflipDuel.sol\":771:1260  function withdraw() public {... */\n            tag_4:\n              callvalue\n              dup1\n              iszero\n              tag_20\n              jumpi\n              0x00\n              dup1\n              revert\n            tag_20:\n              pop\n              tag_21\n              tag_22\n              jump\t// in\n            tag_21:\n              stop\n                /* \"CoinflipDuel.sol\":574:609  address public player2 = address(0) */\n            tag_5:\n              callvalue\n              dup1\n              iszero\n              tag_23\n              jumpi\n              0x00\n              dup1\n              revert\n            tag_23:\n              pop\n              tag_24\n              tag_25\n              jump\t// in\n            tag_24:\n              mload(0x40)\n              tag_26\n              swap2\n              swap1\n              tag_27\n              jump\t// in\n            tag_26:\n              mload(0x40)\n              dup1\n              swap2\n              sub\n              swap1\n              return\n                /* \"CoinflipDuel.sol\":506:525  uint public betsize */\n            tag_6:\n              callvalue\n              dup1\n              iszero\n              tag_28\n              jumpi\n              0x00\n              dup1\n              revert\n            tag_28:\n              pop\n              tag_29\n              tag_30\n              jump\t// in\n            tag_29:\n              mload(0x40)\n              tag_31\n              swap2\n              swap1\n              tag_15\n              jump\t// in\n            tag_31:\n              mload(0x40)\n              dup1\n              swap2\n              sub\n              swap1\n              return\n                /* \"CoinflipDuel.sol\":532:567  address public player1 = address(0) */\n            tag_7:\n              callvalue\n              dup1\n              iszero\n              tag_32\n              jumpi\n              0x00\n              dup1\n              revert\n            tag_32:\n              pop\n              tag_33\n              tag_34\n              jump\t// in\n            tag_33:\n              mload(0x40)\n              tag_35\n              swap2\n              swap1\n              tag_27\n              jump\t// in\n            tag_35:\n              mload(0x40)\n              dup1\n              swap2\n              sub\n              swap1\n              return\n                /* \"CoinflipDuel.sol\":649:675  uint public player2Bet = 0 */\n            tag_8:\n              callvalue\n              dup1\n              iszero\n              tag_36\n              jumpi\n              0x00\n              dup1\n              revert\n            tag_36:\n              pop\n              tag_37\n              tag_38\n              jump\t// in\n            tag_37:\n              mload(0x40)\n              tag_39\n              swap2\n              swap1\n              tag_15\n              jump\t// in\n            tag_39:\n              mload(0x40)\n              dup1\n              swap2\n              sub\n              swap1\n              return\n                /* \"CoinflipDuel.sol\":1268:1670  function enterContract() public payable {... */\n            tag_9:\n              tag_40\n              tag_41\n              jump\t// in\n            tag_40:\n              stop\n                /* \"CoinflipDuel.sol\":616:642  uint public player1Bet = 0 */\n            tag_13:\n              sload(0x03)\n              dup2\n              jump\t// out\n                /* \"CoinflipDuel.sol\":2295:2391  function getBalance() public view returns(uint)  {... */\n            tag_18:\n                /* \"CoinflipDuel.sol\":2337:2341  uint */\n              0x00\n                /* \"CoinflipDuel.sol\":2362:2383  address(this).balance */\n              selfbalance\n                /* \"CoinflipDuel.sol\":2355:2383  return address(this).balance */\n              swap1\n              pop\n                /* \"CoinflipDuel.sol\":2295:2391  function getBalance() public view returns(uint)  {... */\n              swap1\n              jump\t// out\n                /* \"CoinflipDuel.sol\":771:1260  function withdraw() public {... */\n            tag_22:\n                /* \"CoinflipDuel.sol\":831:838  player1 */\n              0x01\n              0x00\n              swap1\n              sload\n              swap1\n              0x0100\n              exp\n              swap1\n              div\n              0xffffffffffffffffffffffffffffffffffffffff\n              and\n                /* \"CoinflipDuel.sol\":817:838  msg.sender == player1 */\n              0xffffffffffffffffffffffffffffffffffffffff\n              and\n                /* \"CoinflipDuel.sol\":817:827  msg.sender */\n              caller\n                /* \"CoinflipDuel.sol\":817:838  msg.sender == player1 */\n              0xffffffffffffffffffffffffffffffffffffffff\n              and\n              eq\n                /* \"CoinflipDuel.sol\":809:839  require(msg.sender == player1) */\n              tag_44\n              jumpi\n              0x00\n              dup1\n              revert\n            tag_44:\n                /* \"CoinflipDuel.sol\":873:880  player1 */\n              0x01\n              0x00\n              swap1\n              sload\n              swap1\n              0x0100\n              exp\n              swap1\n              div\n              0xffffffffffffffffffffffffffffffffffffffff\n              and\n                /* \"CoinflipDuel.sol\":859:880  msg.sender == player1 */\n              0xffffffffffffffffffffffffffffffffffffffff\n              and\n                /* \"CoinflipDuel.sol\":859:869  msg.sender */\n              caller\n                /* \"CoinflipDuel.sol\":859:880  msg.sender == player1 */\n              0xffffffffffffffffffffffffffffffffffffffff\n              and\n              sub\n                /* \"CoinflipDuel.sol\":855:1048  if (msg.sender == player1) {... */\n              tag_45\n              jumpi\n                /* \"CoinflipDuel.sol\":918:919  0 */\n              0x00\n                /* \"CoinflipDuel.sol\":905:915  player1Bet */\n              sload(0x03)\n                /* \"CoinflipDuel.sol\":905:919  player1Bet > 0 */\n              gt\n                /* \"CoinflipDuel.sol\":897:920  require(player1Bet > 0) */\n              tag_46\n              jumpi\n              0x00\n              dup1\n              revert\n            tag_46:\n                /* \"CoinflipDuel.sol\":943:950  player1 */\n              0x01\n              0x00\n              swap1\n              sload\n              swap1\n              0x0100\n              exp\n              swap1\n              div\n              0xffffffffffffffffffffffffffffffffffffffff\n              and\n                /* \"CoinflipDuel.sol\":935:960  payable(player1).transfer */\n              0xffffffffffffffffffffffffffffffffffffffff\n              and\n                /* \"CoinflipDuel.sol\":935:972  payable(player1).transfer(player1Bet) */\n              0x08fc\n                /* \"CoinflipDuel.sol\":961:971  player1Bet */\n              sload(0x03)\n                /* \"CoinflipDuel.sol\":935:972  payable(player1).transfer(player1Bet) */\n              swap1\n              dup2\n              iszero\n              mul\n              swap1\n              mload(0x40)\n              0x00\n              mload(0x40)\n              dup1\n              dup4\n              sub\n              dup2\n              dup6\n              dup9\n              dup9\n              call\n              swap4\n              pop\n              pop\n              pop\n              pop\n              iszero\n              dup1\n              iszero\n              tag_48\n              jumpi\n              returndatasize\n              0x00\n              dup1\n              returndatacopy\n              revert(0x00, returndatasize)\n            tag_48:\n              pop\n                /* \"CoinflipDuel.sol\":1005:1006  0 */\n              0x00\n                /* \"CoinflipDuel.sol\":987:994  player1 */\n              0x01\n              0x00\n                /* \"CoinflipDuel.sol\":987:1007  player1 = address(0) */\n              0x0100\n              exp\n              dup2\n              sload\n              dup2\n              0xffffffffffffffffffffffffffffffffffffffff\n              mul\n              not\n              and\n              swap1\n              dup4\n              0xffffffffffffffffffffffffffffffffffffffff\n              and\n              mul\n              or\n              swap1\n              sstore\n              pop\n                /* \"CoinflipDuel.sol\":1035:1036  0 */\n              0x00\n                /* \"CoinflipDuel.sol\":1022:1032  player1Bet */\n              0x03\n                /* \"CoinflipDuel.sol\":1022:1036  player1Bet = 0 */\n              dup2\n              swap1\n              sstore\n              pop\n                /* \"CoinflipDuel.sol\":855:1048  if (msg.sender == player1) {... */\n            tag_45:\n                /* \"CoinflipDuel.sol\":1078:1085  player2 */\n              0x02\n              0x00\n              swap1\n              sload\n              swap1\n              0x0100\n              exp\n              swap1\n              div\n              0xffffffffffffffffffffffffffffffffffffffff\n              and\n                /* \"CoinflipDuel.sol\":1064:1085  msg.sender == player2 */\n              0xffffffffffffffffffffffffffffffffffffffff\n              and\n                /* \"CoinflipDuel.sol\":1064:1074  msg.sender */\n              caller\n                /* \"CoinflipDuel.sol\":1064:1085  msg.sender == player2 */\n              0xffffffffffffffffffffffffffffffffffffffff\n              and\n              sub\n                /* \"CoinflipDuel.sol\":1060:1253  if (msg.sender == player2) {... */\n              tag_49\n              jumpi\n                /* \"CoinflipDuel.sol\":1123:1124  0 */\n              0x00\n                /* \"CoinflipDuel.sol\":1110:1120  player2Bet */\n              sload(0x04)\n                /* \"CoinflipDuel.sol\":1110:1124  player2Bet > 0 */\n              gt\n                /* \"CoinflipDuel.sol\":1102:1125  require(player2Bet > 0) */\n              tag_50\n              jumpi\n              0x00\n              dup1\n              revert\n            tag_50:\n                /* \"CoinflipDuel.sol\":1148:1155  player2 */\n              0x02\n              0x00\n              swap1\n              sload\n              swap1\n              0x0100\n              exp\n              swap1\n              div\n              0xffffffffffffffffffffffffffffffffffffffff\n              and\n                /* \"CoinflipDuel.sol\":1140:1165  payable(player2).transfer */\n              0xffffffffffffffffffffffffffffffffffffffff\n              and\n                /* \"CoinflipDuel.sol\":1140:1177  payable(player2).transfer(player2Bet) */\n              0x08fc\n                /* \"CoinflipDuel.sol\":1166:1176  player2Bet */\n              sload(0x04)\n                /* \"CoinflipDuel.sol\":1140:1177  payable(player2).transfer(player2Bet) */\n              swap1\n              dup2\n              iszero\n              mul\n              swap1\n              mload(0x40)\n              0x00\n              mload(0x40)\n              dup1\n              dup4\n              sub\n              dup2\n              dup6\n              dup9\n              dup9\n              call\n              swap4\n              pop\n              pop\n              pop\n              pop\n              iszero\n              dup1\n              iszero\n              tag_52\n              jumpi\n              returndatasize\n              0x00\n              dup1\n              returndatacopy\n              revert(0x00, returndatasize)\n            tag_52:\n              pop\n                /* \"CoinflipDuel.sol\":1210:1211  0 */\n              0x00\n                /* \"CoinflipDuel.sol\":1192:1199  player2 */\n              0x02\n              0x00\n                /* \"CoinflipDuel.sol\":1192:1212  player2 = address(0) */\n              0x0100\n              exp\n              dup2\n              sload\n              dup2\n              0xffffffffffffffffffffffffffffffffffffffff\n              mul\n              not\n              and\n              swap1\n              dup4\n              0xffffffffffffffffffffffffffffffffffffffff\n              and\n              mul\n              or\n              swap1\n              sstore\n              pop\n                /* \"CoinflipDuel.sol\":1240:1241  0 */\n              0x00\n                /* \"CoinflipDuel.sol\":1227:1237  player2Bet */\n              0x04\n                /* \"CoinflipDuel.sol\":1227:1241  player2Bet = 0 */\n              dup2\n              swap1\n              sstore\n              pop\n                /* \"CoinflipDuel.sol\":1060:1253  if (msg.sender == player2) {... */\n            tag_49:\n                /* \"CoinflipDuel.sol\":771:1260  function withdraw() public {... */\n              jump\t// out\n                /* \"CoinflipDuel.sol\":574:609  address public player2 = address(0) */\n            tag_25:\n              0x02\n              0x00\n              swap1\n              sload\n              swap1\n              0x0100\n              exp\n              swap1\n              div\n              0xffffffffffffffffffffffffffffffffffffffff\n              and\n              dup2\n              jump\t// out\n                /* \"CoinflipDuel.sol\":506:525  uint public betsize */\n            tag_30:\n              sload(0x00)\n              dup2\n              jump\t// out\n                /* \"CoinflipDuel.sol\":532:567  address public player1 = address(0) */\n            tag_34:\n              0x01\n              0x00\n              swap1\n              sload\n              swap1\n              0x0100\n              exp\n              swap1\n              div\n              0xffffffffffffffffffffffffffffffffffffffff\n              and\n              dup2\n              jump\t// out\n                /* \"CoinflipDuel.sol\":649:675  uint public player2Bet = 0 */\n            tag_38:\n              sload(0x04)\n              dup2\n              jump\t// out\n                /* \"CoinflipDuel.sol\":1268:1670  function enterContract() public payable {... */\n            tag_41:\n                /* \"CoinflipDuel.sol\":1346:1347  0 */\n              0x00\n                /* \"CoinflipDuel.sol\":1327:1348  player1 == address(0) */\n              0xffffffffffffffffffffffffffffffffffffffff\n              and\n                /* \"CoinflipDuel.sol\":1327:1334  player1 */\n              0x01\n              0x00\n              swap1\n              sload\n              swap1\n              0x0100\n              exp\n              swap1\n              div\n              0xffffffffffffffffffffffffffffffffffffffff\n              and\n                /* \"CoinflipDuel.sol\":1327:1348  player1 == address(0) */\n              0xffffffffffffffffffffffffffffffffffffffff\n              and\n              eq\n                /* \"CoinflipDuel.sol\":1327:1373  player1 == address(0) || player2 == address(0) */\n              dup1\n              tag_54\n              jumpi\n              pop\n                /* \"CoinflipDuel.sol\":1371:1372  0 */\n              0x00\n                /* \"CoinflipDuel.sol\":1352:1373  player2 == address(0) */\n              0xffffffffffffffffffffffffffffffffffffffff\n              and\n                /* \"CoinflipDuel.sol\":1352:1359  player2 */\n              0x02\n              0x00\n              swap1\n              sload\n              swap1\n              0x0100\n              exp\n              swap1\n              div\n              0xffffffffffffffffffffffffffffffffffffffff\n              and\n                /* \"CoinflipDuel.sol\":1352:1373  player2 == address(0) */\n              0xffffffffffffffffffffffffffffffffffffffff\n              and\n              eq\n                /* \"CoinflipDuel.sol\":1327:1373  player1 == address(0) || player2 == address(0) */\n            tag_54:\n                /* \"CoinflipDuel.sol\":1319:1374  require(player1 == address(0) || player2 == address(0)) */\n              tag_55\n              jumpi\n              0x00\n              dup1\n              revert\n            tag_55:\n                /* \"CoinflipDuel.sol\":1406:1413  betsize */\n              sload(0x00)\n                /* \"CoinflipDuel.sol\":1393:1402  msg.value */\n              callvalue\n                /* \"CoinflipDuel.sol\":1393:1413  msg.value >= betsize */\n              lt\n              iszero\n                /* \"CoinflipDuel.sol\":1385:1414  require(msg.value >= betsize) */\n              tag_56\n              jumpi\n              0x00\n              dup1\n              revert\n            tag_56:\n                /* \"CoinflipDuel.sol\":1450:1451  0 */\n              0x00\n                /* \"CoinflipDuel.sol\":1431:1452  player1 == address(0) */\n              0xffffffffffffffffffffffffffffffffffffffff\n              and\n                /* \"CoinflipDuel.sol\":1431:1438  player1 */\n              0x01\n              0x00\n              swap1\n              sload\n              swap1\n              0x0100\n              exp\n              swap1\n              div\n              0xffffffffffffffffffffffffffffffffffffffff\n              and\n                /* \"CoinflipDuel.sol\":1431:1452  player1 == address(0) */\n              0xffffffffffffffffffffffffffffffffffffffff\n              and\n              sub\n                /* \"CoinflipDuel.sol\":1427:1661  if (player1 == address(0)) {... */\n              tag_57\n              jumpi\n                /* \"CoinflipDuel.sol\":1479:1489  msg.sender */\n              caller\n                /* \"CoinflipDuel.sol\":1469:1476  player1 */\n              0x01\n              0x00\n                /* \"CoinflipDuel.sol\":1469:1489  player1 = msg.sender */\n              0x0100\n              exp\n              dup2\n              sload\n              dup2\n              0xffffffffffffffffffffffffffffffffffffffff\n              mul\n              not\n              and\n              swap1\n              dup4\n              0xffffffffffffffffffffffffffffffffffffffff\n              and\n              mul\n              or\n              swap1\n              sstore\n              pop\n                /* \"CoinflipDuel.sol\":1517:1526  msg.value */\n              callvalue\n                /* \"CoinflipDuel.sol\":1504:1514  player1Bet */\n              0x03\n                /* \"CoinflipDuel.sol\":1504:1526  player1Bet = msg.value */\n              dup2\n              swap1\n              sstore\n              pop\n                /* \"CoinflipDuel.sol\":1427:1661  if (player1 == address(0)) {... */\n              jump(tag_58)\n            tag_57:\n                /* \"CoinflipDuel.sol\":1569:1579  msg.sender */\n              caller\n                /* \"CoinflipDuel.sol\":1559:1566  player2 */\n              0x02\n              0x00\n                /* \"CoinflipDuel.sol\":1559:1579  player2 = msg.sender */\n              0x0100\n              exp\n              dup2\n              sload\n              dup2\n              0xffffffffffffffffffffffffffffffffffffffff\n              mul\n              not\n              and\n              swap1\n              dup4\n              0xffffffffffffffffffffffffffffffffffffffff\n              and\n              mul\n              or\n              swap1\n              sstore\n              pop\n                /* \"CoinflipDuel.sol\":1607:1616  msg.value */\n              callvalue\n                /* \"CoinflipDuel.sol\":1594:1604  player2Bet */\n              0x04\n                /* \"CoinflipDuel.sol\":1594:1616  player2Bet = msg.value */\n              dup2\n              swap1\n              sstore\n              pop\n                /* \"CoinflipDuel.sol\":1631:1649  initiateCoinflip() */\n              tag_59\n                /* \"CoinflipDuel.sol\":1631:1647  initiateCoinflip */\n              tag_60\n                /* \"CoinflipDuel.sol\":1631:1649  initiateCoinflip() */\n              jump\t// in\n            tag_59:\n                /* \"CoinflipDuel.sol\":1427:1661  if (player1 == address(0)) {... */\n            tag_58:\n                /* \"CoinflipDuel.sol\":1268:1670  function enterContract() public payable {... */\n              jump\t// out\n                /* \"CoinflipDuel.sol\":1844:2287  function initiateCoinflip() private {... */\n            tag_60:\n                /* \"CoinflipDuel.sol\":1912:1913  0 */\n              0x00\n                /* \"CoinflipDuel.sol\":1899:1909  player1Bet */\n              sload(0x03)\n                /* \"CoinflipDuel.sol\":1899:1913  player1Bet > 0 */\n              gt\n                /* \"CoinflipDuel.sol\":1899:1931  player1Bet > 0 && player2Bet > 0 */\n              dup1\n              iszero\n              tag_62\n              jumpi\n              pop\n                /* \"CoinflipDuel.sol\":1930:1931  0 */\n              0x00\n                /* \"CoinflipDuel.sol\":1917:1927  player2Bet */\n              sload(0x04)\n                /* \"CoinflipDuel.sol\":1917:1931  player2Bet > 0 */\n              gt\n                /* \"CoinflipDuel.sol\":1899:1931  player1Bet > 0 && player2Bet > 0 */\n            tag_62:\n                /* \"CoinflipDuel.sol\":1891:1932  require(player1Bet > 0 && player2Bet > 0) */\n              tag_63\n              jumpi\n              0x00\n              dup1\n              revert\n            tag_63:\n                /* \"CoinflipDuel.sol\":1943:1954  uint winner */\n              0x00\n                /* \"CoinflipDuel.sol\":1972:1973  1 */\n              0x01\n                /* \"CoinflipDuel.sol\":1968:1969  2 */\n              0x02\n                /* \"CoinflipDuel.sol\":1957:1965  random() */\n              tag_64\n                /* \"CoinflipDuel.sol\":1957:1963  random */\n              tag_65\n                /* \"CoinflipDuel.sol\":1957:1965  random() */\n              jump\t// in\n            tag_64:\n                /* \"CoinflipDuel.sol\":1957:1969  random() % 2 */\n              tag_66\n              swap2\n              swap1\n              tag_67\n              jump\t// in\n            tag_66:\n                /* \"CoinflipDuel.sol\":1957:1973  random() % 2 + 1 */\n              tag_68\n              swap2\n              swap1\n              tag_69\n              jump\t// in\n            tag_68:\n                /* \"CoinflipDuel.sol\":1943:1973  uint winner = random() % 2 + 1 */\n              swap1\n              pop\n                /* \"CoinflipDuel.sol\":2000:2001  1 */\n              0x01\n                /* \"CoinflipDuel.sol\":1990:1996  winner */\n              dup2\n                /* \"CoinflipDuel.sol\":1990:2001  winner == 1 */\n              sub\n                /* \"CoinflipDuel.sol\":1986:2069  if (winner == 1) {... */\n              tag_70\n              jumpi\n                /* \"CoinflipDuel.sol\":2026:2033  player1 */\n              0x01\n              0x00\n              swap1\n              sload\n              swap1\n              0x0100\n              exp\n              swap1\n              div\n              0xffffffffffffffffffffffffffffffffffffffff\n              and\n                /* \"CoinflipDuel.sol\":2018:2043  payable(player1).transfer */\n              0xffffffffffffffffffffffffffffffffffffffff\n              and\n                /* \"CoinflipDuel.sol\":2018:2057  payable(player1).transfer(getBalance()) */\n              0x08fc\n                /* \"CoinflipDuel.sol\":2044:2056  getBalance() */\n              tag_71\n                /* \"CoinflipDuel.sol\":2044:2054  getBalance */\n              tag_18\n                /* \"CoinflipDuel.sol\":2044:2056  getBalance() */\n              jump\t// in\n            tag_71:\n                /* \"CoinflipDuel.sol\":2018:2057  payable(player1).transfer(getBalance()) */\n              swap1\n              dup2\n              iszero\n              mul\n              swap1\n              mload(0x40)\n              0x00\n              mload(0x40)\n              dup1\n              dup4\n              sub\n              dup2\n              dup6\n              dup9\n              dup9\n              call\n              swap4\n              pop\n              pop\n              pop\n              pop\n              iszero\n              dup1\n              iszero\n              tag_73\n              jumpi\n              returndatasize\n              0x00\n              dup1\n              returndatacopy\n              revert(0x00, returndatasize)\n            tag_73:\n              pop\n                /* \"CoinflipDuel.sol\":1986:2069  if (winner == 1) {... */\n            tag_70:\n                /* \"CoinflipDuel.sol\":2095:2096  2 */\n              0x02\n                /* \"CoinflipDuel.sol\":2085:2091  winner */\n              dup2\n                /* \"CoinflipDuel.sol\":2085:2096  winner == 2 */\n              sub\n                /* \"CoinflipDuel.sol\":2081:2164  if (winner == 2) {... */\n              tag_74\n              jumpi\n                /* \"CoinflipDuel.sol\":2121:2128  player2 */\n              0x02\n              0x00\n              swap1\n              sload\n              swap1\n              0x0100\n              exp\n              swap1\n              div\n              0xffffffffffffffffffffffffffffffffffffffff\n              and\n                /* \"CoinflipDuel.sol\":2113:2138  payable(player2).transfer */\n              0xffffffffffffffffffffffffffffffffffffffff\n              and\n                /* \"CoinflipDuel.sol\":2113:2152  payable(player2).transfer(getBalance()) */\n              0x08fc\n                /* \"CoinflipDuel.sol\":2139:2151  getBalance() */\n              tag_75\n                /* \"CoinflipDuel.sol\":2139:2149  getBalance */\n              tag_18\n                /* \"CoinflipDuel.sol\":2139:2151  getBalance() */\n              jump\t// in\n            tag_75:\n                /* \"CoinflipDuel.sol\":2113:2152  payable(player2).transfer(getBalance()) */\n              swap1\n              dup2\n              iszero\n              mul\n              swap1\n              mload(0x40)\n              0x00\n              mload(0x40)\n              dup1\n              dup4\n              sub\n              dup2\n              dup6\n              dup9\n              dup9\n              call\n              swap4\n              pop\n              pop\n              pop\n              pop\n              iszero\n              dup1\n              iszero\n              tag_77\n              jumpi\n              returndatasize\n              0x00\n              dup1\n              returndatacopy\n              revert(0x00, returndatasize)\n            tag_77:\n              pop\n                /* \"CoinflipDuel.sol\":2081:2164  if (winner == 2) {... */\n            tag_74:\n                /* \"CoinflipDuel.sol\":2194:2195  0 */\n              0x00\n                /* \"CoinflipDuel.sol\":2176:2183  player2 */\n              0x02\n              0x00\n                /* \"CoinflipDuel.sol\":2176:2196  player2 = address(0) */\n              0x0100\n              exp\n              dup2\n              sload\n              dup2\n              0xffffffffffffffffffffffffffffffffffffffff\n              mul\n              not\n              and\n              swap1\n              dup4\n              0xffffffffffffffffffffffffffffffffffffffff\n              and\n              mul\n              or\n              swap1\n              sstore\n              pop\n                /* \"CoinflipDuel.sol\":2220:2221  0 */\n              0x00\n                /* \"CoinflipDuel.sol\":2207:2217  player2Bet */\n              0x04\n                /* \"CoinflipDuel.sol\":2207:2221  player2Bet = 0 */\n              dup2\n              swap1\n              sstore\n              pop\n                /* \"CoinflipDuel.sol\":2250:2251  0 */\n              0x00\n                /* \"CoinflipDuel.sol\":2232:2239  player1 */\n              0x01\n              0x00\n                /* \"CoinflipDuel.sol\":2232:2252  player1 = address(0) */\n              0x0100\n              exp\n              dup2\n              sload\n              dup2\n              0xffffffffffffffffffffffffffffffffffffffff\n              mul\n              not\n              and\n              swap1\n              dup4\n              0xffffffffffffffffffffffffffffffffffffffff\n              and\n              mul\n              or\n              swap1\n              sstore\n              pop\n                /* \"CoinflipDuel.sol\":2276:2277  0 */\n              0x00\n                /* \"CoinflipDuel.sol\":2263:2273  player1Bet */\n              0x03\n                /* \"CoinflipDuel.sol\":2263:2277  player1Bet = 0 */\n              dup2\n              swap1\n              sstore\n              pop\n                /* \"CoinflipDuel.sol\":1880:2287  {... */\n              pop\n                /* \"CoinflipDuel.sol\":1844:2287  function initiateCoinflip() private {... */\n              jump\t// out\n                /* \"CoinflipDuel.sol\":1678:1836  function random() private view returns (uint) {... */\n            tag_65:\n                /* \"CoinflipDuel.sol\":1718:1722  uint */\n              0x00\n                /* \"CoinflipDuel.sol\":1774:1789  block.timestamp */\n              timestamp\n                /* \"CoinflipDuel.sol\":1791:1807  block.difficulty */\n              difficulty\n                /* \"CoinflipDuel.sol\":1809:1816  player1 */\n              0x01\n              0x00\n              swap1\n              sload\n              swap1\n              0x0100\n              exp\n              swap1\n              div\n              0xffffffffffffffffffffffffffffffffffffffff\n              and\n                /* \"CoinflipDuel.sol\":1818:1825  player2 */\n              0x02\n              0x00\n              swap1\n              sload\n              swap1\n              0x0100\n              exp\n              swap1\n              div\n              0xffffffffffffffffffffffffffffffffffffffff\n              and\n                /* \"CoinflipDuel.sol\":1757:1826  abi.encodePacked(block.timestamp, block.difficulty, player1, player2) */\n              add(0x20, mload(0x40))\n              tag_79\n              swap5\n              swap4\n              swap3\n              swap2\n              swap1\n              tag_80\n              jump\t// in\n            tag_79:\n              mload(0x40)\n              0x20\n              dup2\n              dup4\n              sub\n              sub\n              dup2\n              mstore\n              swap1\n              0x40\n              mstore\n                /* \"CoinflipDuel.sol\":1747:1827  keccak256(abi.encodePacked(block.timestamp, block.difficulty, player1, player2)) */\n              dup1\n              mload\n              swap1\n              0x20\n              add\n              keccak256\n                /* \"CoinflipDuel.sol\":1742:1828  uint(keccak256(abi.encodePacked(block.timestamp, block.difficulty, player1, player2))) */\n              0x00\n              shr\n                /* \"CoinflipDuel.sol\":1735:1828  return uint(keccak256(abi.encodePacked(block.timestamp, block.difficulty, player1, player2))) */\n              swap1\n              pop\n                /* \"CoinflipDuel.sol\":1678:1836  function random() private view returns (uint) {... */\n              swap1\n              jump\t// out\n                /* \"#utility.yul\":7:84   */\n            tag_81:\n                /* \"#utility.yul\":44:51   */\n              0x00\n                /* \"#utility.yul\":73:78   */\n              dup2\n                /* \"#utility.yul\":62:78   */\n              swap1\n              pop\n                /* \"#utility.yul\":7:84   */\n              swap2\n              swap1\n              pop\n              jump\t// out\n                /* \"#utility.yul\":90:208   */\n            tag_82:\n                /* \"#utility.yul\":177:201   */\n              tag_97\n                /* \"#utility.yul\":195:200   */\n              dup2\n                /* \"#utility.yul\":177:201   */\n              tag_81\n              jump\t// in\n            tag_97:\n                /* \"#utility.yul\":172:175   */\n              dup3\n                /* \"#utility.yul\":165:202   */\n              mstore\n                /* \"#utility.yul\":90:208   */\n              pop\n              pop\n              jump\t// out\n                /* \"#utility.yul\":214:436   */\n            tag_15:\n                /* \"#utility.yul\":307:311   */\n              0x00\n                /* \"#utility.yul\":345:347   */\n              0x20\n                /* \"#utility.yul\":334:343   */\n              dup3\n                /* \"#utility.yul\":330:348   */\n              add\n                /* \"#utility.yul\":322:348   */\n              swap1\n              pop\n                /* \"#utility.yul\":358:429   */\n              tag_99\n                /* \"#utility.yul\":426:427   */\n              0x00\n                /* \"#utility.yul\":415:424   */\n              dup4\n                /* \"#utility.yul\":411:428   */\n              add\n                /* \"#utility.yul\":402:408   */\n              dup5\n                /* \"#utility.yul\":358:429   */\n              tag_82\n              jump\t// in\n            tag_99:\n                /* \"#utility.yul\":214:436   */\n              swap3\n              swap2\n              pop\n              pop\n              jump\t// out\n                /* \"#utility.yul\":442:568   */\n            tag_83:\n                /* \"#utility.yul\":479:486   */\n              0x00\n                /* \"#utility.yul\":519:561   */\n              0xffffffffffffffffffffffffffffffffffffffff\n                /* \"#utility.yul\":512:517   */\n              dup3\n                /* \"#utility.yul\":508:562   */\n              and\n                /* \"#utility.yul\":497:562   */\n              swap1\n              pop\n                /* \"#utility.yul\":442:568   */\n              swap2\n              swap1\n              pop\n              jump\t// out\n                /* \"#utility.yul\":574:670   */\n            tag_84:\n                /* \"#utility.yul\":611:618   */\n              0x00\n                /* \"#utility.yul\":640:664   */\n              tag_102\n                /* \"#utility.yul\":658:663   */\n              dup3\n                /* \"#utility.yul\":640:664   */\n              tag_83\n              jump\t// in\n            tag_102:\n                /* \"#utility.yul\":629:664   */\n              swap1\n              pop\n                /* \"#utility.yul\":574:670   */\n              swap2\n              swap1\n              pop\n              jump\t// out\n                /* \"#utility.yul\":676:794   */\n            tag_85:\n                /* \"#utility.yul\":763:787   */\n              tag_104\n                /* \"#utility.yul\":781:786   */\n              dup2\n                /* \"#utility.yul\":763:787   */\n              tag_84\n              jump\t// in\n            tag_104:\n                /* \"#utility.yul\":758:761   */\n              dup3\n                /* \"#utility.yul\":751:788   */\n              mstore\n                /* \"#utility.yul\":676:794   */\n              pop\n              pop\n              jump\t// out\n                /* \"#utility.yul\":800:1022   */\n            tag_27:\n                /* \"#utility.yul\":893:897   */\n              0x00\n                /* \"#utility.yul\":931:933   */\n              0x20\n                /* \"#utility.yul\":920:929   */\n              dup3\n                /* \"#utility.yul\":916:934   */\n              add\n                /* \"#utility.yul\":908:934   */\n              swap1\n              pop\n                /* \"#utility.yul\":944:1015   */\n              tag_106\n                /* \"#utility.yul\":1012:1013   */\n              0x00\n                /* \"#utility.yul\":1001:1010   */\n              dup4\n                /* \"#utility.yul\":997:1014   */\n              add\n                /* \"#utility.yul\":988:994   */\n              dup5\n                /* \"#utility.yul\":944:1015   */\n              tag_85\n              jump\t// in\n            tag_106:\n                /* \"#utility.yul\":800:1022   */\n              swap3\n              swap2\n              pop\n              pop\n              jump\t// out\n                /* \"#utility.yul\":1028:1208   */\n            tag_86:\n                /* \"#utility.yul\":1076:1153   */\n              0x4e487b7100000000000000000000000000000000000000000000000000000000\n                /* \"#utility.yul\":1073:1074   */\n              0x00\n                /* \"#utility.yul\":1066:1154   */\n              mstore\n                /* \"#utility.yul\":1173:1177   */\n              0x12\n                /* \"#utility.yul\":1170:1171   */\n              0x04\n                /* \"#utility.yul\":1163:1178   */\n              mstore\n                /* \"#utility.yul\":1197:1201   */\n              0x24\n                /* \"#utility.yul\":1194:1195   */\n              0x00\n                /* \"#utility.yul\":1187:1202   */\n              revert\n                /* \"#utility.yul\":1214:1390   */\n            tag_67:\n                /* \"#utility.yul\":1246:1247   */\n              0x00\n                /* \"#utility.yul\":1263:1283   */\n              tag_109\n                /* \"#utility.yul\":1281:1282   */\n              dup3\n                /* \"#utility.yul\":1263:1283   */\n              tag_81\n              jump\t// in\n            tag_109:\n                /* \"#utility.yul\":1258:1283   */\n              swap2\n              pop\n                /* \"#utility.yul\":1297:1317   */\n              tag_110\n                /* \"#utility.yul\":1315:1316   */\n              dup4\n                /* \"#utility.yul\":1297:1317   */\n              tag_81\n              jump\t// in\n            tag_110:\n                /* \"#utility.yul\":1292:1317   */\n              swap3\n              pop\n                /* \"#utility.yul\":1336:1337   */\n              dup3\n                /* \"#utility.yul\":1326:1361   */\n              tag_111\n              jumpi\n                /* \"#utility.yul\":1341:1359   */\n              tag_112\n              tag_86\n              jump\t// in\n            tag_112:\n                /* \"#utility.yul\":1326:1361   */\n            tag_111:\n                /* \"#utility.yul\":1382:1383   */\n              dup3\n                /* \"#utility.yul\":1379:1380   */\n              dup3\n                /* \"#utility.yul\":1375:1384   */\n              mod\n                /* \"#utility.yul\":1370:1384   */\n              swap1\n              pop\n                /* \"#utility.yul\":1214:1390   */\n              swap3\n              swap2\n              pop\n              pop\n              jump\t// out\n                /* \"#utility.yul\":1396:1576   */\n            tag_87:\n                /* \"#utility.yul\":1444:1521   */\n              0x4e487b7100000000000000000000000000000000000000000000000000000000\n                /* \"#utility.yul\":1441:1442   */\n              0x00\n                /* \"#utility.yul\":1434:1522   */\n              mstore\n                /* \"#utility.yul\":1541:1545   */\n              0x11\n                /* \"#utility.yul\":1538:1539   */\n              0x04\n                /* \"#utility.yul\":1531:1546   */\n              mstore\n                /* \"#utility.yul\":1565:1569   */\n              0x24\n                /* \"#utility.yul\":1562:1563   */\n              0x00\n                /* \"#utility.yul\":1555:1570   */\n              revert\n                /* \"#utility.yul\":1582:1887   */\n            tag_69:\n                /* \"#utility.yul\":1622:1625   */\n              0x00\n                /* \"#utility.yul\":1641:1661   */\n              tag_115\n                /* \"#utility.yul\":1659:1660   */\n              dup3\n                /* \"#utility.yul\":1641:1661   */\n              tag_81\n              jump\t// in\n            tag_115:\n                /* \"#utility.yul\":1636:1661   */\n              swap2\n              pop\n                /* \"#utility.yul\":1675:1695   */\n              tag_116\n                /* \"#utility.yul\":1693:1694   */\n              dup4\n                /* \"#utility.yul\":1675:1695   */\n              tag_81\n              jump\t// in\n            tag_116:\n                /* \"#utility.yul\":1670:1695   */\n              swap3\n              pop\n                /* \"#utility.yul\":1829:1830   */\n              dup3\n                /* \"#utility.yul\":1761:1827   */\n              0xffffffffffffffffffffffffffffffffffffffffffffffffffffffffffffffff\n                /* \"#utility.yul\":1757:1831   */\n              sub\n                /* \"#utility.yul\":1754:1755   */\n              dup3\n                /* \"#utility.yul\":1751:1832   */\n              gt\n                /* \"#utility.yul\":1748:1855   */\n              iszero\n              tag_117\n              jumpi\n                /* \"#utility.yul\":1835:1853   */\n              tag_118\n              tag_87\n              jump\t// in\n            tag_118:\n                /* \"#utility.yul\":1748:1855   */\n            tag_117:\n                /* \"#utility.yul\":1879:1880   */\n              dup3\n                /* \"#utility.yul\":1876:1877   */\n              dup3\n                /* \"#utility.yul\":1872:1881   */\n              add\n                /* \"#utility.yul\":1865:1881   */\n              swap1\n              pop\n                /* \"#utility.yul\":1582:1887   */\n              swap3\n              swap2\n              pop\n              pop\n              jump\t// out\n                /* \"#utility.yul\":1893:1972   */\n            tag_88:\n                /* \"#utility.yul\":1932:1939   */\n              0x00\n                /* \"#utility.yul\":1961:1966   */\n              dup2\n                /* \"#utility.yul\":1950:1966   */\n              swap1\n              pop\n                /* \"#utility.yul\":1893:1972   */\n              swap2\n              swap1\n              pop\n              jump\t// out\n                /* \"#utility.yul\":1978:2135   */\n            tag_89:\n                /* \"#utility.yul\":2083:2128   */\n              tag_121\n                /* \"#utility.yul\":2103:2127   */\n              tag_122\n                /* \"#utility.yul\":2121:2126   */\n              dup3\n                /* \"#utility.yul\":2103:2127   */\n              tag_81\n              jump\t// in\n            tag_122:\n                /* \"#utility.yul\":2083:2128   */\n              tag_88\n              jump\t// in\n            tag_121:\n                /* \"#utility.yul\":2078:2081   */\n              dup3\n                /* \"#utility.yul\":2071:2129   */\n              mstore\n                /* \"#utility.yul\":1978:2135   */\n              pop\n              pop\n              jump\t// out\n                /* \"#utility.yul\":2141:2235   */\n            tag_90:\n                /* \"#utility.yul\":2174:2182   */\n              0x00\n                /* \"#utility.yul\":2222:2227   */\n              dup2\n                /* \"#utility.yul\":2218:2220   */\n              0x60\n                /* \"#utility.yul\":2214:2228   */\n              shl\n                /* \"#utility.yul\":2193:2228   */\n              swap1\n              pop\n                /* \"#utility.yul\":2141:2235   */\n              swap2\n              swap1\n              pop\n              jump\t// out\n                /* \"#utility.yul\":2241:2335   */\n            tag_91:\n                /* \"#utility.yul\":2280:2287   */\n              0x00\n                /* \"#utility.yul\":2309:2329   */\n              tag_125\n                /* \"#utility.yul\":2323:2328   */\n              dup3\n                /* \"#utility.yul\":2309:2329   */\n              tag_90\n              jump\t// in\n            tag_125:\n                /* \"#utility.yul\":2298:2329   */\n              swap1\n              pop\n                /* \"#utility.yul\":2241:2335   */\n              swap2\n              swap1\n              pop\n              jump\t// out\n                /* \"#utility.yul\":2341:2441   */\n            tag_92:\n                /* \"#utility.yul\":2380:2387   */\n              0x00\n                /* \"#utility.yul\":2409:2435   */\n              tag_127\n                /* \"#utility.yul\":2429:2434   */\n              dup3\n                /* \"#utility.yul\":2409:2435   */\n              tag_91\n              jump\t// in\n            tag_127:\n                /* \"#utility.yul\":2398:2435   */\n              swap1\n              pop\n                /* \"#utility.yul\":2341:2441   */\n              swap2\n              swap1\n              pop\n              jump\t// out\n                /* \"#utility.yul\":2447:2604   */\n            tag_93:\n                /* \"#utility.yul\":2552:2597   */\n              tag_129\n                /* \"#utility.yul\":2572:2596   */\n              tag_130\n                /* \"#utility.yul\":2590:2595   */\n              dup3\n                /* \"#utility.yul\":2572:2596   */\n              tag_84\n              jump\t// in\n            tag_130:\n                /* \"#utility.yul\":2552:2597   */\n              tag_92\n              jump\t// in\n            tag_129:\n                /* \"#utility.yul\":2547:2550   */\n              dup3\n                /* \"#utility.yul\":2540:2598   */\n              mstore\n                /* \"#utility.yul\":2447:2604   */\n              pop\n              pop\n              jump\t// out\n                /* \"#utility.yul\":2610:3289   */\n            tag_80:\n                /* \"#utility.yul\":2806:2809   */\n              0x00\n                /* \"#utility.yul\":2821:2896   */\n              tag_132\n                /* \"#utility.yul\":2892:2895   */\n              dup3\n                /* \"#utility.yul\":2883:2889   */\n              dup8\n                /* \"#utility.yul\":2821:2896   */\n              tag_89\n              jump\t// in\n            tag_132:\n                /* \"#utility.yul\":2921:2923   */\n              0x20\n                /* \"#utility.yul\":2916:2919   */\n              dup3\n                /* \"#utility.yul\":2912:2924   */\n              add\n                /* \"#utility.yul\":2905:2924   */\n              swap2\n              pop\n                /* \"#utility.yul\":2934:3009   */\n              tag_133\n                /* \"#utility.yul\":3005:3008   */\n              dup3\n                /* \"#utility.yul\":2996:3002   */\n              dup7\n                /* \"#utility.yul\":2934:3009   */\n              tag_89\n              jump\t// in\n            tag_133:\n                /* \"#utility.yul\":3034:3036   */\n              0x20\n                /* \"#utility.yul\":3029:3032   */\n              dup3\n                /* \"#utility.yul\":3025:3037   */\n              add\n                /* \"#utility.yul\":3018:3037   */\n              swap2\n              pop\n                /* \"#utility.yul\":3047:3122   */\n              tag_134\n                /* \"#utility.yul\":3118:3121   */\n              dup3\n                /* \"#utility.yul\":3109:3115   */\n              dup6\n                /* \"#utility.yul\":3047:3122   */\n              tag_93\n              jump\t// in\n            tag_134:\n                /* \"#utility.yul\":3147:3149   */\n              0x14\n                /* \"#utility.yul\":3142:3145   */\n              dup3\n                /* \"#utility.yul\":3138:3150   */\n              add\n                /* \"#utility.yul\":3131:3150   */\n              swap2\n              pop\n                /* \"#utility.yul\":3160:3235   */\n              tag_135\n                /* \"#utility.yul\":3231:3234   */\n              dup3\n                /* \"#utility.yul\":3222:3228   */\n              dup5\n                /* \"#utility.yul\":3160:3235   */\n              tag_93\n              jump\t// in\n            tag_135:\n                /* \"#utility.yul\":3260:3262   */\n              0x14\n                /* \"#utility.yul\":3255:3258   */\n              dup3\n                /* \"#utility.yul\":3251:3263   */\n              add\n                /* \"#utility.yul\":3244:3263   */\n              swap2\n              pop\n                /* \"#utility.yul\":3280:3283   */\n              dup2\n                /* \"#utility.yul\":3273:3283   */\n              swap1\n              pop\n                /* \"#utility.yul\":2610:3289   */\n              swap6\n              swap5\n              pop\n              pop\n              pop\n              pop\n              pop\n              jump\t// out\n\n            auxdata: 0xa2646970667358221220222478c5f57c4645688024fc175c22f5dd9c612b4df09a3186093c09482dbe8564736f6c634300080f0033\n        }\n    }\n\n    auxdata: 0xa2646970667358221220e97042eba82f97ac52efa0c815eecb81e127943b91ddd2274ebfe120f01a9a8264736f6c634300080f0033\n}\n","bytecode":{"linkReferences":{},"object":"608060405234801561001057600080fd5b5061106a806100206000396000f3fe608060405234801561001057600080fd5b50600436106100415760003560e01c806347b27d131461004657806350a4cef114610076578063de0b8a5214610092575b600080fd5b610060600480360381019061005b9190610264565b6100b0565b60405161006d91906102d2565b60405180910390f35b610090600480360381019061008b9190610264565b6100ef565b005b61009a61018e565b6040516100a791906103ab565b60405180910390f35b600081815481106100c057600080fd5b906000526020600020016000915054906101000a900473ffffffffffffffffffffffffffffffffffffffff1681565b6000816040516100fe9061021c565b61010891906103dc565b604051809103906000f080158015610124573d6000803e3d6000fd5b5090506000819080600181540180825580915050600190039060005260206000200160009091909190916101000a81548173ffffffffffffffffffffffffffffffffffffffff021916908373ffffffffffffffffffffffffffffffffffffffff1602179055505050565b6060600080548060200260200160405190810160405280929190818152602001828054801561021257602002820191906000526020600020905b8160009054906101000a900473ffffffffffffffffffffffffffffffffffffffff1673ffffffffffffffffffffffffffffffffffffffff16815260200190600101908083116101c8575b5050505050905090565b610c3d806103f883390190565b600080fd5b6000819050919050565b6102418161022e565b811461024c57600080fd5b50565b60008135905061025e81610238565b92915050565b60006020828403121561027a57610279610229565b5b60006102888482850161024f565b91505092915050565b600073ffffffffffffffffffffffffffffffffffffffff82169050919050565b60006102bc82610291565b9050919050565b6102cc816102b1565b82525050565b60006020820190506102e760008301846102c3565b92915050565b600081519050919050565b600082825260208201905092915050565b6000819050602082019050919050565b610322816102b1565b82525050565b60006103348383610319565b60208301905092915050565b6000602082019050919050565b6000610358826102ed565b61036281856102f8565b935061036d83610309565b8060005b8381101561039e5781516103858882610328565b975061039083610340565b925050600181019050610371565b5085935050505092915050565b600060208201905081810360008301526103c5818461034d565b905092915050565b6103d68161022e565b82525050565b60006020820190506103f160008301846103cd565b9291505056fe60806040526000600160006101000a81548173ffffffffffffffffffffffffffffffffffffffff021916908373ffffffffffffffffffffffffffffffffffffffff1602179055506000600260006101000a81548173ffffffffffffffffffffffffffffffffffffffff021916908373ffffffffffffffffffffffffffffffffffffffff1602179055506000600355600060045534801561009e57600080fd5b50604051610c3d380380610c3d83398181016040528101906100c09190610108565b8060008190555050610135565b600080fd5b6000819050919050565b6100e5816100d2565b81146100f057600080fd5b50565b600081519050610102816100dc565b92915050565b60006020828403121561011e5761011d6100cd565b5b600061012c848285016100f3565b91505092915050565b610af9806101446000396000f3fe60806040526004361061007b5760003560e01c806361740acd1161004e57806361740acd14610118578063d30895e414610143578063d9f8fd121461016e578063fdc03ca2146101995761007b565b806311289fba1461008057806312065fe0146100ab5780633ccfd60b146100d657806359a5f12d146100ed575b600080fd5b34801561008c57600080fd5b506100956101a3565b6040516100a291906108b0565b60405180910390f35b3480156100b757600080fd5b506100c06101a9565b6040516100cd91906108b0565b60405180910390f35b3480156100e257600080fd5b506100eb6101b1565b005b3480156100f957600080fd5b50610102610441565b60405161010f919061090c565b60405180910390f35b34801561012457600080fd5b5061012d610467565b60405161013a91906108b0565b60405180910390f35b34801561014f57600080fd5b5061015861046d565b604051610165919061090c565b60405180910390f35b34801561017a57600080fd5b50610183610493565b60405161019091906108b0565b60405180910390f35b6101a1610499565b005b60035481565b600047905090565b600160009054906101000a900473ffffffffffffffffffffffffffffffffffffffff1673ffffffffffffffffffffffffffffffffffffffff163373ffffffffffffffffffffffffffffffffffffffff161461020b57600080fd5b600160009054906101000a900473ffffffffffffffffffffffffffffffffffffffff1673ffffffffffffffffffffffffffffffffffffffff163373ffffffffffffffffffffffffffffffffffffffff16036103255760006003541161026f57600080fd5b600160009054906101000a900473ffffffffffffffffffffffffffffffffffffffff1673ffffffffffffffffffffffffffffffffffffffff166108fc6003549081150290604051600060405180830381858888f193505050501580156102d9573d6000803e3d6000fd5b506000600160006101000a81548173ffffffffffffffffffffffffffffffffffffffff021916908373ffffffffffffffffffffffffffffffffffffffff16021790555060006003819055505b600260009054906101000a900473ffffffffffffffffffffffffffffffffffffffff1673ffffffffffffffffffffffffffffffffffffffff163373ffffffffffffffffffffffffffffffffffffffff160361043f5760006004541161038957600080fd5b600260009054906101000a900473ffffffffffffffffffffffffffffffffffffffff1673ffffffffffffffffffffffffffffffffffffffff166108fc6004549081150290604051600060405180830381858888f193505050501580156103f3573d6000803e3d6000fd5b506000600260006101000a81548173ffffffffffffffffffffffffffffffffffffffff021916908373ffffffffffffffffffffffffffffffffffffffff16021790555060006004819055505b565b600260009054906101000a900473ffffffffffffffffffffffffffffffffffffffff1681565b60005481565b600160009054906101000a900473ffffffffffffffffffffffffffffffffffffffff1681565b60045481565b600073ffffffffffffffffffffffffffffffffffffffff16600160009054906101000a900473ffffffffffffffffffffffffffffffffffffffff1673ffffffffffffffffffffffffffffffffffffffff1614806105445750600073ffffffffffffffffffffffffffffffffffffffff16600260009054906101000a900473ffffffffffffffffffffffffffffffffffffffff1673ffffffffffffffffffffffffffffffffffffffff16145b61054d57600080fd5b60005434101561055c57600080fd5b600073ffffffffffffffffffffffffffffffffffffffff16600160009054906101000a900473ffffffffffffffffffffffffffffffffffffffff1673ffffffffffffffffffffffffffffffffffffffff16036105ff5733600160006101000a81548173ffffffffffffffffffffffffffffffffffffffff021916908373ffffffffffffffffffffffffffffffffffffffff16021790555034600381905550610650565b33600260006101000a81548173ffffffffffffffffffffffffffffffffffffffff021916908373ffffffffffffffffffffffffffffffffffffffff1602179055503460048190555061064f610652565b5b565b600060035411801561066657506000600454115b61066f57600080fd5b60006001600261067d61081c565b6106879190610956565b61069191906109b6565b90506001810361070c57600160009054906101000a900473ffffffffffffffffffffffffffffffffffffffff1673ffffffffffffffffffffffffffffffffffffffff166108fc6106df6101a9565b9081150290604051600060405180830381858888f1935050505015801561070a573d6000803e3d6000fd5b505b6002810361078557600260009054906101000a900473ffffffffffffffffffffffffffffffffffffffff1673ffffffffffffffffffffffffffffffffffffffff166108fc6107586101a9565b9081150290604051600060405180830381858888f19350505050158015610783573d6000803e3d6000fd5b505b6000600260006101000a81548173ffffffffffffffffffffffffffffffffffffffff021916908373ffffffffffffffffffffffffffffffffffffffff16021790555060006004819055506000600160006101000a81548173ffffffffffffffffffffffffffffffffffffffff021916908373ffffffffffffffffffffffffffffffffffffffff160217905550600060038190555050565b60004244600160009054906101000a900473ffffffffffffffffffffffffffffffffffffffff16600260009054906101000a900473ffffffffffffffffffffffffffffffffffffffff166040516020016108799493929190610a75565b6040516020818303038152906040528051906020012060001c905090565b6000819050919050565b6108aa81610897565b82525050565b60006020820190506108c560008301846108a1565b92915050565b600073ffffffffffffffffffffffffffffffffffffffff82169050919050565b60006108f6826108cb565b9050919050565b610906816108eb565b82525050565b600060208201905061092160008301846108fd565b92915050565b7f4e487b7100000000000000000000000000000000000000000000000000000000600052601260045260246000fd5b600061096182610897565b915061096c83610897565b92508261097c5761097b610927565b5b828206905092915050565b7f4e487b7100000000000000000000000000000000000000000000000000000000600052601160045260246000fd5b60006109c182610897565b91506109cc83610897565b9250827fffffffffffffffffffffffffffffffffffffffffffffffffffffffffffffffff03821115610a0157610a00610987565b5b828201905092915050565b6000819050919050565b610a27610a2282610897565b610a0c565b82525050565b60008160601b9050919050565b6000610a4582610a2d565b9050919050565b6000610a5782610a3a565b9050919050565b610a6f610a6a826108eb565b610a4c565b82525050565b6000610a818287610a16565b602082019150610a918286610a16565b602082019150610aa18285610a5e565b601482019150610ab18284610a5e565b6014820191508190509594505050505056fea2646970667358221220222478c5f57c4645688024fc175c22f5dd9c612b4df09a3186093c09482dbe8564736f6c634300080f0033a2646970667358221220e97042eba82f97ac52efa0c815eecb81e127943b91ddd2274ebfe120f01a9a8264736f6c634300080f0033","opcodes":"PUSH1 0x80 PUSH1 0x40 MSTORE CALLVALUE DUP1 ISZERO PUSH2 0x10 JUMPI PUSH1 0x0 DUP1 REVERT JUMPDEST POP PUSH2 0x106A DUP1 PUSH2 0x20 PUSH1 0x0 CODECOPY PUSH1 0x0 RETURN INVALID PUSH1 0x80 PUSH1 0x40 MSTORE CALLVALUE DUP1 ISZERO PUSH2 0x10 JUMPI PUSH1 0x0 DUP1 REVERT JUMPDEST POP PUSH1 0x4 CALLDATASIZE LT PUSH2 0x41 JUMPI PUSH1 0x0 CALLDATALOAD PUSH1 0xE0 SHR DUP1 PUSH4 0x47B27D13 EQ PUSH2 0x46 JUMPI DUP1 PUSH4 0x50A4CEF1 EQ PUSH2 0x76 JUMPI DUP1 PUSH4 0xDE0B8A52 EQ PUSH2 0x92 JUMPI JUMPDEST PUSH1 0x0 DUP1 REVERT JUMPDEST PUSH2 0x60 PUSH1 0x4 DUP1 CALLDATASIZE SUB DUP2 ADD SWAP1 PUSH2 0x5B SWAP2 SWAP1 PUSH2 0x264 JUMP JUMPDEST PUSH2 0xB0 JUMP JUMPDEST PUSH1 0x40 MLOAD PUSH2 0x6D SWAP2 SWAP1 PUSH2 0x2D2 JUMP JUMPDEST PUSH1 0x40 MLOAD DUP1 SWAP2 SUB SWAP1 RETURN JUMPDEST PUSH2 0x90 PUSH1 0x4 DUP1 CALLDATASIZE SUB DUP2 ADD SWAP1 PUSH2 0x8B SWAP2 SWAP1 PUSH2 0x264 JUMP JUMPDEST PUSH2 0xEF JUMP JUMPDEST STOP JUMPDEST PUSH2 0x9A PUSH2 0x18E JUMP JUMPDEST PUSH1 0x40 MLOAD PUSH2 0xA7 SWAP2 SWAP1 PUSH2 0x3AB JUMP JUMPDEST PUSH1 0x40 MLOAD DUP1 SWAP2 SUB SWAP1 RETURN JUMPDEST PUSH1 0x0 DUP2 DUP2 SLOAD DUP2 LT PUSH2 0xC0 JUMPI PUSH1 0x0 DUP1 REVERT JUMPDEST SWAP1 PUSH1 0x0 MSTORE PUSH1 0x20 PUSH1 0x0 KECCAK256 ADD PUSH1 0x0 SWAP2 POP SLOAD SWAP1 PUSH2 0x100 EXP SWAP1 DIV PUSH20 0xFFFFFFFFFFFFFFFFFFFFFFFFFFFFFFFFFFFFFFFF AND DUP2 JUMP JUMPDEST PUSH1 0x0 DUP2 PUSH1 0x40 MLOAD PUSH2 0xFE SWAP1 PUSH2 0x21C JUMP JUMPDEST PUSH2 0x108 SWAP2 SWAP1 PUSH2 0x3DC JUMP JUMPDEST PUSH1 0x40 MLOAD DUP1 SWAP2 SUB SWAP1 PUSH1 0x0 CREATE DUP1 ISZERO DUP1 ISZERO PUSH2 0x124 JUMPI RETURNDATASIZE PUSH1 0x0 DUP1 RETURNDATACOPY RETURNDATASIZE PUSH1 0x0 REVERT JUMPDEST POP SWAP1 POP PUSH1 0x0 DUP2 SWAP1 DUP1 PUSH1 0x1 DUP2 SLOAD ADD DUP1 DUP3 SSTORE DUP1 SWAP2 POP POP PUSH1 0x1 SWAP1 SUB SWAP1 PUSH1 0x0 MSTORE PUSH1 0x20 PUSH1 0x0 KECCAK256 ADD PUSH1 0x0 SWAP1 SWAP2 SWAP1 SWAP2 SWAP1 SWAP2 PUSH2 0x100 EXP DUP2 SLOAD DUP2 PUSH20 0xFFFFFFFFFFFFFFFFFFFFFFFFFFFFFFFFFFFFFFFF MUL NOT AND SWAP1 DUP4 PUSH20 0xFFFFFFFFFFFFFFFFFFFFFFFFFFFFFFFFFFFFFFFF AND MUL OR SWAP1 SSTORE POP POP POP JUMP JUMPDEST PUSH1 0x60 PUSH1 0x0 DUP1 SLOAD DUP1 PUSH1 0x20 MUL PUSH1 0x20 ADD PUSH1 0x40 MLOAD SWAP1 DUP2 ADD PUSH1 0x40 MSTORE DUP1 SWAP3 SWAP2 SWAP1 DUP2 DUP2 MSTORE PUSH1 0x20 ADD DUP3 DUP1 SLOAD DUP1 ISZERO PUSH2 0x212 JUMPI PUSH1 0x20 MUL DUP3 ADD SWAP2 SWAP1 PUSH1 0x0 MSTORE PUSH1 0x20 PUSH1 0x0 KECCAK256 SWAP1 JUMPDEST DUP2 PUSH1 0x0 SWAP1 SLOAD SWAP1 PUSH2 0x100 EXP SWAP1 DIV PUSH20 0xFFFFFFFFFFFFFFFFFFFFFFFFFFFFFFFFFFFFFFFF AND PUSH20 0xFFFFFFFFFFFFFFFFFFFFFFFFFFFFFFFFFFFFFFFF AND DUP2 MSTORE PUSH1 0x20 ADD SWAP1 PUSH1 0x1 ADD SWAP1 DUP1 DUP4 GT PUSH2 0x1C8 JUMPI JUMPDEST POP POP POP POP POP SWAP1 POP SWAP1 JUMP JUMPDEST PUSH2 0xC3D DUP1 PUSH2 0x3F8 DUP4 CODECOPY ADD SWAP1 JUMP JUMPDEST PUSH1 0x0 DUP1 REVERT JUMPDEST PUSH1 0x0 DUP2 SWAP1 POP SWAP2 SWAP1 POP JUMP JUMPDEST PUSH2 0x241 DUP2 PUSH2 0x22E JUMP JUMPDEST DUP2 EQ PUSH2 0x24C JUMPI PUSH1 0x0 DUP1 REVERT JUMPDEST POP JUMP JUMPDEST PUSH1 0x0 DUP2 CALLDATALOAD SWAP1 POP PUSH2 0x25E DUP2 PUSH2 0x238 JUMP JUMPDEST SWAP3 SWAP2 POP POP JUMP JUMPDEST PUSH1 0x0 PUSH1 0x20 DUP3 DUP5 SUB SLT ISZERO PUSH2 0x27A JUMPI PUSH2 0x279 PUSH2 0x229 JUMP JUMPDEST JUMPDEST PUSH1 0x0 PUSH2 0x288 DUP5 DUP3 DUP6 ADD PUSH2 0x24F JUMP JUMPDEST SWAP2 POP POP SWAP3 SWAP2 POP POP JUMP JUMPDEST PUSH1 0x0 PUSH20 0xFFFFFFFFFFFFFFFFFFFFFFFFFFFFFFFFFFFFFFFF DUP3 AND SWAP1 POP SWAP2 SWAP1 POP JUMP JUMPDEST PUSH1 0x0 PUSH2 0x2BC DUP3 PUSH2 0x291 JUMP JUMPDEST SWAP1 POP SWAP2 SWAP1 POP JUMP JUMPDEST PUSH2 0x2CC DUP2 PUSH2 0x2B1 JUMP JUMPDEST DUP3 MSTORE POP POP JUMP JUMPDEST PUSH1 0x0 PUSH1 0x20 DUP3 ADD SWAP1 POP PUSH2 0x2E7 PUSH1 0x0 DUP4 ADD DUP5 PUSH2 0x2C3 JUMP JUMPDEST SWAP3 SWAP2 POP POP JUMP JUMPDEST PUSH1 0x0 DUP2 MLOAD SWAP1 POP SWAP2 SWAP1 POP JUMP JUMPDEST PUSH1 0x0 DUP3 DUP3 MSTORE PUSH1 0x20 DUP3 ADD SWAP1 POP SWAP3 SWAP2 POP POP JUMP JUMPDEST PUSH1 0x0 DUP2 SWAP1 POP PUSH1 0x20 DUP3 ADD SWAP1 POP SWAP2 SWAP1 POP JUMP JUMPDEST PUSH2 0x322 DUP2 PUSH2 0x2B1 JUMP JUMPDEST DUP3 MSTORE POP POP JUMP JUMPDEST PUSH1 0x0 PUSH2 0x334 DUP4 DUP4 PUSH2 0x319 JUMP JUMPDEST PUSH1 0x20 DUP4 ADD SWAP1 POP SWAP3 SWAP2 POP POP JUMP JUMPDEST PUSH1 0x0 PUSH1 0x20 DUP3 ADD SWAP1 POP SWAP2 SWAP1 POP JUMP JUMPDEST PUSH1 0x0 PUSH2 0x358 DUP3 PUSH2 0x2ED JUMP JUMPDEST PUSH2 0x362 DUP2 DUP6 PUSH2 0x2F8 JUMP JUMPDEST SWAP4 POP PUSH2 0x36D DUP4 PUSH2 0x309 JUMP JUMPDEST DUP1 PUSH1 0x0 JUMPDEST DUP4 DUP2 LT ISZERO PUSH2 0x39E JUMPI DUP2 MLOAD PUSH2 0x385 DUP9 DUP3 PUSH2 0x328 JUMP JUMPDEST SWAP8 POP PUSH2 0x390 DUP4 PUSH2 0x340 JUMP JUMPDEST SWAP3 POP POP PUSH1 0x1 DUP2 ADD SWAP1 POP PUSH2 0x371 JUMP JUMPDEST POP DUP6 SWAP4 POP POP POP POP SWAP3 SWAP2 POP POP JUMP JUMPDEST PUSH1 0x0 PUSH1 0x20 DUP3 ADD SWAP1 POP DUP2 DUP2 SUB PUSH1 0x0 DUP4 ADD MSTORE PUSH2 0x3C5 DUP2 DUP5 PUSH2 0x34D JUMP JUMPDEST SWAP1 POP SWAP3 SWAP2 POP POP JUMP JUMPDEST PUSH2 0x3D6 DUP2 PUSH2 0x22E JUMP JUMPDEST DUP3 MSTORE POP POP JUMP JUMPDEST PUSH1 0x0 PUSH1 0x20 DUP3 ADD SWAP1 POP PUSH2 0x3F1 PUSH1 0x0 DUP4 ADD DUP5 PUSH2 0x3CD JUMP JUMPDEST SWAP3 SWAP2 POP POP JUMP INVALID PUSH1 0x80 PUSH1 0x40 MSTORE PUSH1 0x0 PUSH1 0x1 PUSH1 0x0 PUSH2 0x100 EXP DUP2 SLOAD DUP2 PUSH20 0xFFFFFFFFFFFFFFFFFFFFFFFFFFFFFFFFFFFFFFFF MUL NOT AND SWAP1 DUP4 PUSH20 0xFFFFFFFFFFFFFFFFFFFFFFFFFFFFFFFFFFFFFFFF AND MUL OR SWAP1 SSTORE POP PUSH1 0x0 PUSH1 0x2 PUSH1 0x0 PUSH2 0x100 EXP DUP2 SLOAD DUP2 PUSH20 0xFFFFFFFFFFFFFFFFFFFFFFFFFFFFFFFFFFFFFFFF MUL NOT AND SWAP1 DUP4 PUSH20 0xFFFFFFFFFFFFFFFFFFFFFFFFFFFFFFFFFFFFFFFF AND MUL OR SWAP1 SSTORE POP PUSH1 0x0 PUSH1 0x3 SSTORE PUSH1 0x0 PUSH1 0x4 SSTORE CALLVALUE DUP1 ISZERO PUSH2 0x9E JUMPI PUSH1 0x0 DUP1 REVERT JUMPDEST POP PUSH1 0x40 MLOAD PUSH2 0xC3D CODESIZE SUB DUP1 PUSH2 0xC3D DUP4 CODECOPY DUP2 DUP2 ADD PUSH1 0x40 MSTORE DUP2 ADD SWAP1 PUSH2 0xC0 SWAP2 SWAP1 PUSH2 0x108 JUMP JUMPDEST DUP1 PUSH1 0x0 DUP2 SWAP1 SSTORE POP POP PUSH2 0x135 JUMP JUMPDEST PUSH1 0x0 DUP1 REVERT JUMPDEST PUSH1 0x0 DUP2 SWAP1 POP SWAP2 SWAP1 POP JUMP JUMPDEST PUSH2 0xE5 DUP2 PUSH2 0xD2 JUMP JUMPDEST DUP2 EQ PUSH2 0xF0 JUMPI PUSH1 0x0 DUP1 REVERT JUMPDEST POP JUMP JUMPDEST PUSH1 0x0 DUP2 MLOAD SWAP1 POP PUSH2 0x102 DUP2 PUSH2 0xDC JUMP JUMPDEST SWAP3 SWAP2 POP POP JUMP JUMPDEST PUSH1 0x0 PUSH1 0x20 DUP3 DUP5 SUB SLT ISZERO PUSH2 0x11E JUMPI PUSH2 0x11D PUSH2 0xCD JUMP JUMPDEST JUMPDEST PUSH1 0x0 PUSH2 0x12C DUP5 DUP3 DUP6 ADD PUSH2 0xF3 JUMP JUMPDEST SWAP2 POP POP SWAP3 SWAP2 POP POP JUMP JUMPDEST PUSH2 0xAF9 DUP1 PUSH2 0x144 PUSH1 0x0 CODECOPY PUSH1 0x0 RETURN INVALID PUSH1 0x80 PUSH1 0x40 MSTORE PUSH1 0x4 CALLDATASIZE LT PUSH2 0x7B JUMPI PUSH1 0x0 CALLDATALOAD PUSH1 0xE0 SHR DUP1 PUSH4 0x61740ACD GT PUSH2 0x4E JUMPI DUP1 PUSH4 0x61740ACD EQ PUSH2 0x118 JUMPI DUP1 PUSH4 0xD30895E4 EQ PUSH2 0x143 JUMPI DUP1 PUSH4 0xD9F8FD12 EQ PUSH2 0x16E JUMPI DUP1 PUSH4 0xFDC03CA2 EQ PUSH2 0x199 JUMPI PUSH2 0x7B JUMP JUMPDEST DUP1 PUSH4 0x11289FBA EQ PUSH2 0x80 JUMPI DUP1 PUSH4 0x12065FE0 EQ PUSH2 0xAB JUMPI DUP1 PUSH4 0x3CCFD60B EQ PUSH2 0xD6 JUMPI DUP1 PUSH4 0x59A5F12D EQ PUSH2 0xED JUMPI JUMPDEST PUSH1 0x0 DUP1 REVERT JUMPDEST CALLVALUE DUP1 ISZERO PUSH2 0x8C JUMPI PUSH1 0x0 DUP1 REVERT JUMPDEST POP PUSH2 0x95 PUSH2 0x1A3 JUMP JUMPDEST PUSH1 0x40 MLOAD PUSH2 0xA2 SWAP2 SWAP1 PUSH2 0x8B0 JUMP JUMPDEST PUSH1 0x40 MLOAD DUP1 SWAP2 SUB SWAP1 RETURN JUMPDEST CALLVALUE DUP1 ISZERO PUSH2 0xB7 JUMPI PUSH1 0x0 DUP1 REVERT JUMPDEST POP PUSH2 0xC0 PUSH2 0x1A9 JUMP JUMPDEST PUSH1 0x40 MLOAD PUSH2 0xCD SWAP2 SWAP1 PUSH2 0x8B0 JUMP JUMPDEST PUSH1 0x40 MLOAD DUP1 SWAP2 SUB SWAP1 RETURN JUMPDEST CALLVALUE DUP1 ISZERO PUSH2 0xE2 JUMPI PUSH1 0x0 DUP1 REVERT JUMPDEST POP PUSH2 0xEB PUSH2 0x1B1 JUMP JUMPDEST STOP JUMPDEST CALLVALUE DUP1 ISZERO PUSH2 0xF9 JUMPI PUSH1 0x0 DUP1 REVERT JUMPDEST POP PUSH2 0x102 PUSH2 0x441 JUMP JUMPDEST PUSH1 0x40 MLOAD PUSH2 0x10F SWAP2 SWAP1 PUSH2 0x90C JUMP JUMPDEST PUSH1 0x40 MLOAD DUP1 SWAP2 SUB SWAP1 RETURN JUMPDEST CALLVALUE DUP1 ISZERO PUSH2 0x124 JUMPI PUSH1 0x0 DUP1 REVERT JUMPDEST POP PUSH2 0x12D PUSH2 0x467 JUMP JUMPDEST PUSH1 0x40 MLOAD PUSH2 0x13A SWAP2 SWAP1 PUSH2 0x8B0 JUMP JUMPDEST PUSH1 0x40 MLOAD DUP1 SWAP2 SUB SWAP1 RETURN JUMPDEST CALLVALUE DUP1 ISZERO PUSH2 0x14F JUMPI PUSH1 0x0 DUP1 REVERT JUMPDEST POP PUSH2 0x158 PUSH2 0x46D JUMP JUMPDEST PUSH1 0x40 MLOAD PUSH2 0x165 SWAP2 SWAP1 PUSH2 0x90C JUMP JUMPDEST PUSH1 0x40 MLOAD DUP1 SWAP2 SUB SWAP1 RETURN JUMPDEST CALLVALUE DUP1 ISZERO PUSH2 0x17A JUMPI PUSH1 0x0 DUP1 REVERT JUMPDEST POP PUSH2 0x183 PUSH2 0x493 JUMP JUMPDEST PUSH1 0x40 MLOAD PUSH2 0x190 SWAP2 SWAP1 PUSH2 0x8B0 JUMP JUMPDEST PUSH1 0x40 MLOAD DUP1 SWAP2 SUB SWAP1 RETURN JUMPDEST PUSH2 0x1A1 PUSH2 0x499 JUMP JUMPDEST STOP JUMPDEST PUSH1 0x3 SLOAD DUP2 JUMP JUMPDEST PUSH1 0x0 SELFBALANCE SWAP1 POP SWAP1 JUMP JUMPDEST PUSH1 0x1 PUSH1 0x0 SWAP1 SLOAD SWAP1 PUSH2 0x100 EXP SWAP1 DIV PUSH20 0xFFFFFFFFFFFFFFFFFFFFFFFFFFFFFFFFFFFFFFFF AND PUSH20 0xFFFFFFFFFFFFFFFFFFFFFFFFFFFFFFFFFFFFFFFF AND CALLER PUSH20 0xFFFFFFFFFFFFFFFFFFFFFFFFFFFFFFFFFFFFFFFF AND EQ PUSH2 0x20B JUMPI PUSH1 0x0 DUP1 REVERT JUMPDEST PUSH1 0x1 PUSH1 0x0 SWAP1 SLOAD SWAP1 PUSH2 0x100 EXP SWAP1 DIV PUSH20 0xFFFFFFFFFFFFFFFFFFFFFFFFFFFFFFFFFFFFFFFF AND PUSH20 0xFFFFFFFFFFFFFFFFFFFFFFFFFFFFFFFFFFFFFFFF AND CALLER PUSH20 0xFFFFFFFFFFFFFFFFFFFFFFFFFFFFFFFFFFFFFFFF AND SUB PUSH2 0x325 JUMPI PUSH1 0x0 PUSH1 0x3 SLOAD GT PUSH2 0x26F JUMPI PUSH1 0x0 DUP1 REVERT JUMPDEST PUSH1 0x1 PUSH1 0x0 SWAP1 SLOAD SWAP1 PUSH2 0x100 EXP SWAP1 DIV PUSH20 0xFFFFFFFFFFFFFFFFFFFFFFFFFFFFFFFFFFFFFFFF AND PUSH20 0xFFFFFFFFFFFFFFFFFFFFFFFFFFFFFFFFFFFFFFFF AND PUSH2 0x8FC PUSH1 0x3 SLOAD SWAP1 DUP2 ISZERO MUL SWAP1 PUSH1 0x40 MLOAD PUSH1 0x0 PUSH1 0x40 MLOAD DUP1 DUP4 SUB DUP2 DUP6 DUP9 DUP9 CALL SWAP4 POP POP POP POP ISZERO DUP1 ISZERO PUSH2 0x2D9 JUMPI RETURNDATASIZE PUSH1 0x0 DUP1 RETURNDATACOPY RETURNDATASIZE PUSH1 0x0 REVERT JUMPDEST POP PUSH1 0x0 PUSH1 0x1 PUSH1 0x0 PUSH2 0x100 EXP DUP2 SLOAD DUP2 PUSH20 0xFFFFFFFFFFFFFFFFFFFFFFFFFFFFFFFFFFFFFFFF MUL NOT AND SWAP1 DUP4 PUSH20 0xFFFFFFFFFFFFFFFFFFFFFFFFFFFFFFFFFFFFFFFF AND MUL OR SWAP1 SSTORE POP PUSH1 0x0 PUSH1 0x3 DUP2 SWAP1 SSTORE POP JUMPDEST PUSH1 0x2 PUSH1 0x0 SWAP1 SLOAD SWAP1 PUSH2 0x100 EXP SWAP1 DIV PUSH20 0xFFFFFFFFFFFFFFFFFFFFFFFFFFFFFFFFFFFFFFFF AND PUSH20 0xFFFFFFFFFFFFFFFFFFFFFFFFFFFFFFFFFFFFFFFF AND CALLER PUSH20 0xFFFFFFFFFFFFFFFFFFFFFFFFFFFFFFFFFFFFFFFF AND SUB PUSH2 0x43F JUMPI PUSH1 0x0 PUSH1 0x4 SLOAD GT PUSH2 0x389 JUMPI PUSH1 0x0 DUP1 REVERT JUMPDEST PUSH1 0x2 PUSH1 0x0 SWAP1 SLOAD SWAP1 PUSH2 0x100 EXP SWAP1 DIV PUSH20 0xFFFFFFFFFFFFFFFFFFFFFFFFFFFFFFFFFFFFFFFF AND PUSH20 0xFFFFFFFFFFFFFFFFFFFFFFFFFFFFFFFFFFFFFFFF AND PUSH2 0x8FC PUSH1 0x4 SLOAD SWAP1 DUP2 ISZERO MUL SWAP1 PUSH1 0x40 MLOAD PUSH1 0x0 PUSH1 0x40 MLOAD DUP1 DUP4 SUB DUP2 DUP6 DUP9 DUP9 CALL SWAP4 POP POP POP POP ISZERO DUP1 ISZERO PUSH2 0x3F3 JUMPI RETURNDATASIZE PUSH1 0x0 DUP1 RETURNDATACOPY RETURNDATASIZE PUSH1 0x0 REVERT JUMPDEST POP PUSH1 0x0 PUSH1 0x2 PUSH1 0x0 PUSH2 0x100 EXP DUP2 SLOAD DUP2 PUSH20 0xFFFFFFFFFFFFFFFFFFFFFFFFFFFFFFFFFFFFFFFF MUL NOT AND SWAP1 DUP4 PUSH20 0xFFFFFFFFFFFFFFFFFFFFFFFFFFFFFFFFFFFFFFFF AND MUL OR SWAP1 SSTORE POP PUSH1 0x0 PUSH1 0x4 DUP2 SWAP1 SSTORE POP JUMPDEST JUMP JUMPDEST PUSH1 0x2 PUSH1 0x0 SWAP1 SLOAD SWAP1 PUSH2 0x100 EXP SWAP1 DIV PUSH20 0xFFFFFFFFFFFFFFFFFFFFFFFFFFFFFFFFFFFFFFFF AND DUP2 JUMP JUMPDEST PUSH1 0x0 SLOAD DUP2 JUMP JUMPDEST PUSH1 0x1 PUSH1 0x0 SWAP1 SLOAD SWAP1 PUSH2 0x100 EXP SWAP1 DIV PUSH20 0xFFFFFFFFFFFFFFFFFFFFFFFFFFFFFFFFFFFFFFFF AND DUP2 JUMP JUMPDEST PUSH1 0x4 SLOAD DUP2 JUMP JUMPDEST PUSH1 0x0 PUSH20 0xFFFFFFFFFFFFFFFFFFFFFFFFFFFFFFFFFFFFFFFF AND PUSH1 0x1 PUSH1 0x0 SWAP1 SLOAD SWAP1 PUSH2 0x100 EXP SWAP1 DIV PUSH20 0xFFFFFFFFFFFFFFFFFFFFFFFFFFFFFFFFFFFFFFFF AND PUSH20 0xFFFFFFFFFFFFFFFFFFFFFFFFFFFFFFFFFFFFFFFF AND EQ DUP1 PUSH2 0x544 JUMPI POP PUSH1 0x0 PUSH20 0xFFFFFFFFFFFFFFFFFFFFFFFFFFFFFFFFFFFFFFFF AND PUSH1 0x2 PUSH1 0x0 SWAP1 SLOAD SWAP1 PUSH2 0x100 EXP SWAP1 DIV PUSH20 0xFFFFFFFFFFFFFFFFFFFFFFFFFFFFFFFFFFFFFFFF AND PUSH20 0xFFFFFFFFFFFFFFFFFFFFFFFFFFFFFFFFFFFFFFFF AND EQ JUMPDEST PUSH2 0x54D JUMPI PUSH1 0x0 DUP1 REVERT JUMPDEST PUSH1 0x0 SLOAD CALLVALUE LT ISZERO PUSH2 0x55C JUMPI PUSH1 0x0 DUP1 REVERT JUMPDEST PUSH1 0x0 PUSH20 0xFFFFFFFFFFFFFFFFFFFFFFFFFFFFFFFFFFFFFFFF AND PUSH1 0x1 PUSH1 0x0 SWAP1 SLOAD SWAP1 PUSH2 0x100 EXP SWAP1 DIV PUSH20 0xFFFFFFFFFFFFFFFFFFFFFFFFFFFFFFFFFFFFFFFF AND PUSH20 0xFFFFFFFFFFFFFFFFFFFFFFFFFFFFFFFFFFFFFFFF AND SUB PUSH2 0x5FF JUMPI CALLER PUSH1 0x1 PUSH1 0x0 PUSH2 0x100 EXP DUP2 SLOAD DUP2 PUSH20 0xFFFFFFFFFFFFFFFFFFFFFFFFFFFFFFFFFFFFFFFF MUL NOT AND SWAP1 DUP4 PUSH20 0xFFFFFFFFFFFFFFFFFFFFFFFFFFFFFFFFFFFFFFFF AND MUL OR SWAP1 SSTORE POP CALLVALUE PUSH1 0x3 DUP2 SWAP1 SSTORE POP PUSH2 0x650 JUMP JUMPDEST CALLER PUSH1 0x2 PUSH1 0x0 PUSH2 0x100 EXP DUP2 SLOAD DUP2 PUSH20 0xFFFFFFFFFFFFFFFFFFFFFFFFFFFFFFFFFFFFFFFF MUL NOT AND SWAP1 DUP4 PUSH20 0xFFFFFFFFFFFFFFFFFFFFFFFFFFFFFFFFFFFFFFFF AND MUL OR SWAP1 SSTORE POP CALLVALUE PUSH1 0x4 DUP2 SWAP1 SSTORE POP PUSH2 0x64F PUSH2 0x652 JUMP JUMPDEST JUMPDEST JUMP JUMPDEST PUSH1 0x0 PUSH1 0x3 SLOAD GT DUP1 ISZERO PUSH2 0x666 JUMPI POP PUSH1 0x0 PUSH1 0x4 SLOAD GT JUMPDEST PUSH2 0x66F JUMPI PUSH1 0x0 DUP1 REVERT JUMPDEST PUSH1 0x0 PUSH1 0x1 PUSH1 0x2 PUSH2 0x67D PUSH2 0x81C JUMP JUMPDEST PUSH2 0x687 SWAP2 SWAP1 PUSH2 0x956 JUMP JUMPDEST PUSH2 0x691 SWAP2 SWAP1 PUSH2 0x9B6 JUMP JUMPDEST SWAP1 POP PUSH1 0x1 DUP2 SUB PUSH2 0x70C JUMPI PUSH1 0x1 PUSH1 0x0 SWAP1 SLOAD SWAP1 PUSH2 0x100 EXP SWAP1 DIV PUSH20 0xFFFFFFFFFFFFFFFFFFFFFFFFFFFFFFFFFFFFFFFF AND PUSH20 0xFFFFFFFFFFFFFFFFFFFFFFFFFFFFFFFFFFFFFFFF AND PUSH2 0x8FC PUSH2 0x6DF PUSH2 0x1A9 JUMP JUMPDEST SWAP1 DUP2 ISZERO MUL SWAP1 PUSH1 0x40 MLOAD PUSH1 0x0 PUSH1 0x40 MLOAD DUP1 DUP4 SUB DUP2 DUP6 DUP9 DUP9 CALL SWAP4 POP POP POP POP ISZERO DUP1 ISZERO PUSH2 0x70A JUMPI RETURNDATASIZE PUSH1 0x0 DUP1 RETURNDATACOPY RETURNDATASIZE PUSH1 0x0 REVERT JUMPDEST POP JUMPDEST PUSH1 0x2 DUP2 SUB PUSH2 0x785 JUMPI PUSH1 0x2 PUSH1 0x0 SWAP1 SLOAD SWAP1 PUSH2 0x100 EXP SWAP1 DIV PUSH20 0xFFFFFFFFFFFFFFFFFFFFFFFFFFFFFFFFFFFFFFFF AND PUSH20 0xFFFFFFFFFFFFFFFFFFFFFFFFFFFFFFFFFFFFFFFF AND PUSH2 0x8FC PUSH2 0x758 PUSH2 0x1A9 JUMP JUMPDEST SWAP1 DUP2 ISZERO MUL SWAP1 PUSH1 0x40 MLOAD PUSH1 0x0 PUSH1 0x40 MLOAD DUP1 DUP4 SUB DUP2 DUP6 DUP9 DUP9 CALL SWAP4 POP POP POP POP ISZERO DUP1 ISZERO PUSH2 0x783 JUMPI RETURNDATASIZE PUSH1 0x0 DUP1 RETURNDATACOPY RETURNDATASIZE PUSH1 0x0 REVERT JUMPDEST POP JUMPDEST PUSH1 0x0 PUSH1 0x2 PUSH1 0x0 PUSH2 0x100 EXP DUP2 SLOAD DUP2 PUSH20 0xFFFFFFFFFFFFFFFFFFFFFFFFFFFFFFFFFFFFFFFF MUL NOT AND SWAP1 DUP4 PUSH20 0xFFFFFFFFFFFFFFFFFFFFFFFFFFFFFFFFFFFFFFFF AND MUL OR SWAP1 SSTORE POP PUSH1 0x0 PUSH1 0x4 DUP2 SWAP1 SSTORE POP PUSH1 0x0 PUSH1 0x1 PUSH1 0x0 PUSH2 0x100 EXP DUP2 SLOAD DUP2 PUSH20 0xFFFFFFFFFFFFFFFFFFFFFFFFFFFFFFFFFFFFFFFF MUL NOT AND SWAP1 DUP4 PUSH20 0xFFFFFFFFFFFFFFFFFFFFFFFFFFFFFFFFFFFFFFFF AND MUL OR SWAP1 SSTORE POP PUSH1 0x0 PUSH1 0x3 DUP2 SWAP1 SSTORE POP POP JUMP JUMPDEST PUSH1 0x0 TIMESTAMP DIFFICULTY PUSH1 0x1 PUSH1 0x0 SWAP1 SLOAD SWAP1 PUSH2 0x100 EXP SWAP1 DIV PUSH20 0xFFFFFFFFFFFFFFFFFFFFFFFFFFFFFFFFFFFFFFFF AND PUSH1 0x2 PUSH1 0x0 SWAP1 SLOAD SWAP1 PUSH2 0x100 EXP SWAP1 DIV PUSH20 0xFFFFFFFFFFFFFFFFFFFFFFFFFFFFFFFFFFFFFFFF AND PUSH1 0x40 MLOAD PUSH1 0x20 ADD PUSH2 0x879 SWAP5 SWAP4 SWAP3 SWAP2 SWAP1 PUSH2 0xA75 JUMP JUMPDEST PUSH1 0x40 MLOAD PUSH1 0x20 DUP2 DUP4 SUB SUB DUP2 MSTORE SWAP1 PUSH1 0x40 MSTORE DUP1 MLOAD SWAP1 PUSH1 0x20 ADD KECCAK256 PUSH1 0x0 SHR SWAP1 POP SWAP1 JUMP JUMPDEST PUSH1 0x0 DUP2 SWAP1 POP SWAP2 SWAP1 POP JUMP JUMPDEST PUSH2 0x8AA DUP2 PUSH2 0x897 JUMP JUMPDEST DUP3 MSTORE POP POP JUMP JUMPDEST PUSH1 0x0 PUSH1 0x20 DUP3 ADD SWAP1 POP PUSH2 0x8C5 PUSH1 0x0 DUP4 ADD DUP5 PUSH2 0x8A1 JUMP JUMPDEST SWAP3 SWAP2 POP POP JUMP JUMPDEST PUSH1 0x0 PUSH20 0xFFFFFFFFFFFFFFFFFFFFFFFFFFFFFFFFFFFFFFFF DUP3 AND SWAP1 POP SWAP2 SWAP1 POP JUMP JUMPDEST PUSH1 0x0 PUSH2 0x8F6 DUP3 PUSH2 0x8CB JUMP JUMPDEST SWAP1 POP SWAP2 SWAP1 POP JUMP JUMPDEST PUSH2 0x906 DUP2 PUSH2 0x8EB JUMP JUMPDEST DUP3 MSTORE POP POP JUMP JUMPDEST PUSH1 0x0 PUSH1 0x20 DUP3 ADD SWAP1 POP PUSH2 0x921 PUSH1 0x0 DUP4 ADD DUP5 PUSH2 0x8FD JUMP JUMPDEST SWAP3 SWAP2 POP POP JUMP JUMPDEST PUSH32 0x4E487B7100000000000000000000000000000000000000000000000000000000 PUSH1 0x0 MSTORE PUSH1 0x12 PUSH1 0x4 MSTORE PUSH1 0x24 PUSH1 0x0 REVERT JUMPDEST PUSH1 0x0 PUSH2 0x961 DUP3 PUSH2 0x897 JUMP JUMPDEST SWAP2 POP PUSH2 0x96C DUP4 PUSH2 0x897 JUMP JUMPDEST SWAP3 POP DUP3 PUSH2 0x97C JUMPI PUSH2 0x97B PUSH2 0x927 JUMP JUMPDEST JUMPDEST DUP3 DUP3 MOD SWAP1 POP SWAP3 SWAP2 POP POP JUMP JUMPDEST PUSH32 0x4E487B7100000000000000000000000000000000000000000000000000000000 PUSH1 0x0 MSTORE PUSH1 0x11 PUSH1 0x4 MSTORE PUSH1 0x24 PUSH1 0x0 REVERT JUMPDEST PUSH1 0x0 PUSH2 0x9C1 DUP3 PUSH2 0x897 JUMP JUMPDEST SWAP2 POP PUSH2 0x9CC DUP4 PUSH2 0x897 JUMP JUMPDEST SWAP3 POP DUP3 PUSH32 0xFFFFFFFFFFFFFFFFFFFFFFFFFFFFFFFFFFFFFFFFFFFFFFFFFFFFFFFFFFFFFFFF SUB DUP3 GT ISZERO PUSH2 0xA01 JUMPI PUSH2 0xA00 PUSH2 0x987 JUMP JUMPDEST JUMPDEST DUP3 DUP3 ADD SWAP1 POP SWAP3 SWAP2 POP POP JUMP JUMPDEST PUSH1 0x0 DUP2 SWAP1 POP SWAP2 SWAP1 POP JUMP JUMPDEST PUSH2 0xA27 PUSH2 0xA22 DUP3 PUSH2 0x897 JUMP JUMPDEST PUSH2 0xA0C JUMP JUMPDEST DUP3 MSTORE POP POP JUMP JUMPDEST PUSH1 0x0 DUP2 PUSH1 0x60 SHL SWAP1 POP SWAP2 SWAP1 POP JUMP JUMPDEST PUSH1 0x0 PUSH2 0xA45 DUP3 PUSH2 0xA2D JUMP JUMPDEST SWAP1 POP SWAP2 SWAP1 POP JUMP JUMPDEST PUSH1 0x0 PUSH2 0xA57 DUP3 PUSH2 0xA3A JUMP JUMPDEST SWAP1 POP SWAP2 SWAP1 POP JUMP JUMPDEST PUSH2 0xA6F PUSH2 0xA6A DUP3 PUSH2 0x8EB JUMP JUMPDEST PUSH2 0xA4C JUMP JUMPDEST DUP3 MSTORE POP POP JUMP JUMPDEST PUSH1 0x0 PUSH2 0xA81 DUP3 DUP8 PUSH2 0xA16 JUMP JUMPDEST PUSH1 0x20 DUP3 ADD SWAP2 POP PUSH2 0xA91 DUP3 DUP7 PUSH2 0xA16 JUMP JUMPDEST PUSH1 0x20 DUP3 ADD SWAP2 POP PUSH2 0xAA1 DUP3 DUP6 PUSH2 0xA5E JUMP JUMPDEST PUSH1 0x14 DUP3 ADD SWAP2 POP PUSH2 0xAB1 DUP3 DUP5 PUSH2 0xA5E JUMP JUMPDEST PUSH1 0x14 DUP3 ADD SWAP2 POP DUP2 SWAP1 POP SWAP6 SWAP5 POP POP POP POP POP JUMP INVALID LOG2 PUSH5 0x6970667358 0x22 SLT KECCAK256 0x22 0x24 PUSH25 0xC5F57C4645688024FC175C22F5DD9C612B4DF09A3186093C09 BASEFEE 0x2D 0xBE DUP6 PUSH5 0x736F6C6343 STOP ADDMOD 0xF STOP CALLER LOG2 PUSH5 0x6970667358 0x22 SLT KECCAK256 0xE9 PUSH17 0x42EBA82F97AC52EFA0C815EECB81E12794 EXTCODESIZE SWAP2 0xDD 0xD2 0x27 0x4E 0xBF 0xE1 KECCAK256 CREATE BYTE SWAP11 DUP3 PUSH5 0x736F6C6343 STOP ADDMOD 0xF STOP CALLER "},"gasEstimates":{"creation":{"codeDepositCost":"840400","executionCost":"877","totalCost":"841277"},"external":{"createCoinflipDuel(uint256)":"infinite","deployedCoinflipDuels(uint256)":"4934","getDeployedCoinflipDuels()":"infinite"}},"methodIdentifiers":{"createCoinflipDuel(uint256)":"50a4cef1","deployedCoinflipDuels(uint256)":"47b27d13","getDeployedCoinflipDuels()":"de0b8a52"}},"storageLayout":{"storage":[{"astId":4,"contract":"CoinflipDuel.sol:CoinflipDuelFactory","label":"deployedCoinflipDuels","offset":0,"slot":"0","type":"t_array(t_address)dyn_storage"}],"types":{"t_address":{"encoding":"inplace","label":"address","numberOfBytes":"20"},"t_array(t_address)dyn_storage":{"base":"t_address","encoding":"dynamic_array","label":"address[]","numberOfBytes":"32"}}},"userdoc":{"kind":"user","methods":{},"version":1}}